S01100004C41425F48414C5F312E7372656380
S214000000B02BFE1F714D0000194800006D4D00001A
S2140000106D4D00006D4D00006D4D000000000000AD
S2140000200000000000000000000000006D4D000011
S2140000306D4D0000000000006D4D00006D4D00008D
S21400004025450000A1160000FFFFFFFFFFFFFFFF92
S214000050FFFFFFFFFFFFFFFFFFFFFFFFFFFFFFFFAB
S214000060FFFFFFFFFFFFFFFFFFFFFFFFFFFFFFFF9B
S214000070FFFFFFFFFFFFFFFFFFFFFFFFFFFFFFFF8B
S214000080FFFFFFFFFFFFFFFFFFFFFFFFFFFFFFFF7B
S214000400FFFFFFFFFFFDFFFFFFFFFFFFFFFFFFFFF9
S214000410FFFFFFFFFFFFFFFFFFFFFFFFFFFFFFFFE7
S214000420FFFFFFFFFFFFFFFFFFFFFFFFFFFFFFFFD7
S214000430FFFFFFFFFFFFFFFFFFFFFFFFFFFFFFFFC7
S214000440FFFFFFFFFFFFFFFFFFFFFFFFFFFFFFFFB7
S214000450FFFFFFFFFFFFFFFFFFFFFFFFFFFFFFFFA7
S214000460FFFFFFFFFFFFFFFFFFFFFFFFFFFFFFFF97
S214000470FFFFFFFFFFFFFFFFFFFFFFFFFFFFFFFF87
S214000480FFFFFFFFFFFFFFFFFFFFFFFFFFFFFFFF77
S214000490FFFFFFFFFFFFFFFFFFFFFFFFFFFFFFFF67
S2140004A0FFFFFFFFFFFFFFFFFFFFFFFFFFFFFFFF57
S2140004B0FFFFFFFFFFFFFFFFFFFFFFFFFFFFFFFF47
S2140004C0FFFFFFFFFFFFFFFFFFFFFFFFFFFFFFFF37
S2140004D0FFFFFFFFFFFFFFFFFFFFFFFFFFFFFFFF27
S2140004E0FFFFFFFFFFFFFFFFFFFFFFFFFFFFFFFF17
S2140004F0FFFFFFFFFFFFFFFFFFFFFFFFFFFFFFFF07
S2140005002403FE1F4B0020202803FE1FB6002B608E
S21400051020000000200001002F0000002F00010036
S2140005200C00010011000000300000003000010047
S2140005302400000024000100240002002400030020
S214000540240004002400050013000000170000002B
S2140005502300000021000000210001000700000029
S2140005600700010007000200070003000700040060
S214000570070005000700060007000700120000003D
S21400058044000000080000000B00000041000000CE
S214000590400000004000010004000000430000008E
S2140005A02B0000002B000A002B000B002B000C0079
S2140005B02B000D002B0001002B0002002B00030077
S2140005C02B0004002B0005002B0006002B00070064
S2140005D02B0008002B0009000600000006000A0099
S2140005E006000B0006000C0006000D0006000E00BC
S2140005F006000F00060001000600020006000300C9
S21400060006000400060005000600060006000700B7
S214000610060008000600090015000000150001008D
S21400062015000200310000002A000000450000000E
S214000630100000000301000003000000030001009A
S2140006400F0000000D0000002D000000420000001A
S2140006502C0000002C0001002C0002002C000300DF
S21400066032000000280000001800000014000000FF
S214000670140001001400020014000300140004001B
S21400068014000500140006001400070014000800FB
S21400069014000900340000003400010016000000B9
S2140006A0160001003500000036000000360001008C
S2140006B02200000033000000330100002900000083
S2140006C010B5054C237833B9044B13B10448AFF387
S2140006D000800123237010BD8802FE1F000000006A
S2140006E028A30200084B10B51BB108480849AFF311
S2140006F000800848036803B910BD074B002BFBD0E9
S214000700BDE81040184700BF0000000028A3020004
S2140007108C02FE1FE001FE1F0000000070B4104CAB
S2140007202368020A9A4216D26568C0B200F1100623
S214000730012355F8225003FA06F62E420BD069B173
S21400074000EB0210A36853F82030C3F340030020E8
S2140007500B7070BC7047032070BC70471846FBE7F0
S2140007605002FE1F084B1A68000A904201D303206D
S214000770704731B1DA684301043200209B580B8081
S21400078070470120704700BF5002FE1F084B1A68D2
S214000790000A904201D30320704739B1DA6843015A
S2140007A0043200209B581B0C0B80704701207047BA
S2140007B05002FE1F144A1368F0B4040A9C421DD26D
S2140007C05768C5B205F11006012357F8244003FA0E
S2140007D006F6264212D0A1B1D468000A04344001BD
S2140007E003FA05F2005992B202EA1040904213BF93
S2140007F0002000200B700870F0BC70470320F0BC8F
S21400080070471846FBE700BF5002FE1F0C4B10B4A3
S2140008101C68000AA04200D21AB903205DF8044BF7
S2140008207047DB685DF8044B083303EB401022EAA0
S2140008300103114041EA034141600020704700BFB8
S2140008405002FE1F134BF0B41C68020AA2420AD2E2
S2140008505F68C5B205F11006012457F8222004FA95
S21400086006F6164202D10320F0BC70470129FAD8DA
S21400087000F47F400AD0AC4024040021DB68083333
S21400088003EBD0000C4344600020EDE7A94089B29A
S2140008900024F3E75002FE1F40B101230421022288
S2140008A001704370C370827000207047012070474B
S2140008B0012901D9032070472C4BF0B51C68020AA9
S2140008C0A2424ED25D68C0B200F11006012455F86F
S2140008D02250B4402C4244D000EB02109C681D69A4
S2140008E054F8203000293ED043F00401204E0E403C
S2140008F0EFF31087012383F310881E4B1A8892B2F9
S21400090022B94FF0400EEA7085F803E01A880132EB
S21400091092B21A8087F31088CF0354F8202007D5A8
S214000920154F22F480320F4044F8202044F82070FF
S21400093044F82060EFF31081012282F310881A88B1
S2140009400C4892B21AB10288013A92B202801B8811
S2140009509BB213B98022EB70EA7081F310880020F6
S214000960F0BD0320F0BD23F00401BFE75002FE1FD8
S214000970D5FC011FA402FE1FD5FC001F0AB90320E8
S21400098070470B4B10B41C68000AA04203D3032028
S2140009905DF8044B7047DB6822EA01044001083327
S2140009A00A4042EA0442C2505DF8044B00207047F9
S2140009B05002FE1F0AB9032070470D4B70B41C6826
S2140009C0000AA04202D3032070BC70474001DD68D5
S2140009D02E582B5802EA01043443A4B261EA0202FC
S2140009E01B0C22401B041A432A50002070BC704780
S2140009F05002FE1F2DE9F041002839D009681E4D2F
S214000A00002701EBC000B8464FF0010E8C8800238B
S214000A1035F81320A24218D00133032BF8D1083141
S214000A208142F3D1FF43FFB2012004F06FF9134A6D
S214000A3092F8BB3448EA030808EA070782F8BB7452
S214000A400120BDE8F04104F031B90A6802F0B8525E
S214000A50B2F1807F05D00EFA03F647EA0602D7B257
S214000A60DAE70EFA03F248EA02085FFA88F8D3E7F4
S214000A708046FF27D8E700BF7C91020000E00140D7
S214000A8070B582B002AB002403F8044D0546184644
S214000A900E4603F0A1FE9DF80430DB0702D40620C4
S214000AA002B070BD202D02D9032002B070BD012E09
S214000AB0FAD8084B1A69137805D02B4303F0300395
S214000AC020461370ECE703F0300323EA05052046C2
S214000AD01570E5E75002FE1F002867D02DE9F84F95
S214000AE04368002B5FD00146804631F8040BFFF7C1
S214000AF081FFB8F80030002B52D02D4CDFF8B4E060
S214000B00A146002201204FF0400B4FF0800AD8F893
S214000B100430DEF8107053F83260DEF8085003EB4D
S214000B20C20399880B0AC9B201EB0313EFF3108CCA
S214000B3080F31088218889B211B9F97087F803B05C
S214000B402188013189B221808CF3108816F4803F09
S214000B5055F8231007D021F4803126F4803C45F860
S214000B60231045F823C045F82360EFF3108180F387
S214000B70108823889BB22BB1B9F80030013B9BB29A
S214000B80A9F8003023889BB213B9FB7087F803A03E
S214000B9081F310880132B8F8003092B29342B6D88A
S214000BA00020BDE8F88F0120BDE8F88F01207047CF
S214000BB0A402FE1F5002FE1F002832D04368002BFE
S214000BC02FD0F0B587B006AC002309210193164A52
S214000BD004F8141D154ED768029305460393049334
S214000BE0059302A92046B8474FF00A0C029ABDF8B2
S214000BF00C308DF804C002A9F2602046059A726097
S214000C003360B8470122029B8DF8052002A92046D2
S214000C10B360B847029B33612846FFF75DFF07B015
S214000C20F0BD0120704700BF389202005002FE1F40
S214000C302DE9F041304C2268050A954284B00346FF
S214000C400CD26268C6B20F464FF0010806F11001DA
S214000C5052F8252008FA01F1114203D1032004B00E
S214000C60BDE8F08104A902AA41F80C2D4046ADF873
S214000C700C300297ADF8008006EB0515FFF7BAFEBC
S214000C802069A268EFF3108488F310881B490B884C
S214000C909BB213B94026C370C6700B8801339BB253
S214000CA00B8084F31088FC0352F8253007D523F414
S214000CB0803327F4803442F8253042F8254042F845
S214000CC02570EFF31082012383F310880B880B4CFA
S214000CD09BB25BB90B889BB213B98021C370C170FD
S214000CE082F31088002004B0BDE8F0812388013B21
S214000CF09BB22380EEE700BF5002FE1FA402FE1F39
S214000D00012901D9032070472C4BF0B51C68020A54
S214000D10A2424ED25D68C0B200F11006012455F81A
S214000D202250B4402C4244D000EB02109C681D694F
S214000D3054F8203001293ED023F00101204E0E4009
S214000D40EFF31087012383F310881E4B1A8892B2A4
S214000D5022B94FF0400EEA7085F803E01A88013297
S214000D6092B21A8087F31088CF0354F8202007D554
S214000D70154F22F480320F4044F8202044F82070AB
S214000D8044F82060EFF31081012282F310881A885D
S214000D900C4892B21AB10288013A92B202801B88BD
S214000DA09BB213B98022EB70EA7081F310880020A2
S214000DB0F0BD0320F0BD43F00101BFE75002FE1F67
S214000DC0D5FC011FA402FE1FD5FC001F20B1034B5B
S214000DD01B6803600020704701207047AC9102003A
S214000DE02DE9F04782B002AC002544F8045D3C4D86
S214000DF08946AF6982469046214603201E464C46E9
S214000E000025B847B8F1060F34D8DFE808F00F37EA
S214000E104953575B040000214FF47A7202FB09F233
S214000E200B46019827F05EFE04460D469AF81330EE
S214000E30012B07D000230A9A00201370346002B0FA
S214000E40BDE8F0874FF6FF700021A94208BFA04218
S214000E504FF00003EFD2A208AF0842EA8572B9420B
S214000E6003F1010308BF904214463D46DBB2E2D2CE
S214000E70052BF0D1032002B0BDE8F087019816A339
S214000E80D3E90023A9FB000127F02CFE04460D46FB
S214000E909AF81330012BD5D04FF0FF300021D4E75D
S214000EA00198104A0023A9FB000127F01BFE044608
S214000EB00D46EDE701984FF47A72F3E7019CA9FB23
S214000EC00445E5E72B464A460198002127F00AFE2E
S214000ED004460D46AAE700BF00CA9A3B0000000081
S214000EE0DC92020040420F00012970B514461E46EF
S214000EF020D01CD3022913D1A0FB02010023114AE3
S214000F00002527F0EFFD8D4208BF84420AD0002955
S214000F1008BFB0F1FF3F05D08D4208BF844203D220
S214000F20032070BD4FF0FF303060002070BD002100
S214000F300025E8E7A0FB020100236422002527F035
S214000F40D1FDE0E7A086010068B1084BC2689A426E
S214000F5001D00720704783682BB1DA6A22F00102BD
S214000F60DA62002070470120704700BF54504700E7
S214000F7068B1084BC2689A4201D007207047836860
S214000F802BB1DA6A42F00102DA62002070470120D3
S214000F90704700BF5450470030B129B1074BC268B4
S214000FA09A4203D007207047012070478368002BC1
S214000FB0FAD09B6C0B600020704700BF545047006F
S214000FC000B3114BC2689A4201D00720704783686D
S214000FD0C3B130B4EFF31084012383F31088836821
S214000FE0DA6AD96A002021F00101D9629864DD6AC4
S214000FF002F0010125F001020A43DA6284F3108848
S21400100030BC7047012070475450470078B170B527
S2140010101D4CC568A54284B002D0072004B070BD40
S2140010208468002C2ED021B9032004B070BD0120A6
S21400103070470DF10B030025009303AB04460395A0
S2140010408DF80B50FFF7CCFE0028E7D1A368DA6ACC
S214001050D96A21F00101D962D96A9DF80B4021F0C6
S214001060E06104F0070441EA0461D962039901399A
S21400107059669864D96A02F0010221F001010A4318
S214001080DA62CBE70120C9E75450470030B129B1F6
S2140010901E4BC2689A4203D0072070470120704753
S2140010A02DE9F041876882B06FB37B6E0E4602A9C9
S2140010B000250133B36041F8045DFA6A044614481B
S2140010C0C2F302688369032098474FEA4808012361
S2140010D003FA08F2019BB3FBF2F373603B6B03F079
S2140010E001033370FB6A13F0010F0CBF01232B467C
S2140010F03373237C03EB83035B00B6332846F3810C
S21400110002B0BDE8F0810120FAE700BF5450470066
S214001110DC92020008B3F0B52B4CC568A54283B03C
S21400112002D0072003B0F0BD8768C7B115461E463B
S2140011307A6E02AB04460846002143F8041D0132CD
S2140011402946FFF7D1FE0028ECD1019BA26843B9DF
S2140011508EB1012E24D01846E4E701207047012006
S214001160E0E7591C14D076B9116B21F440311163B5
S21400117030465365D6E7136B23F4403343F400330D
S21400118030461363CEE7012E18D093650020C9E7DA
S21400119076B1012EC6D1136B43F040731363C1E7DB
S2140011A0116B21F0407141F0007118461163B9E7E8
S2140011B0136B43F4403330461363B3E7116B21F0EF
S2140011C040711163E1E700BF54504700002847D044
S2140011D0244BC2689A4201D0072070478368002BD0
S2140011E03ED030B59A6B22F0C0029A63DA6A22F0DB
S2140011F00102DA62817C4AB2002A83B00DDB520912
S21400120020320124184D01F01F0104FA01F145F8BF
S2140012102210BFF34F8FBFF36F8FDA8E22F48072E7
S214001220DA869A8E044622F4807202A800252B21C4
S2140012309A860195237C00F8041DADF8063003F06D
S214001240EDFC94F91230657413F1210F04D0074AAF
S214001250126852F833301D600020E06003B030BDE5
S214001260012070475450470000E100E00498020057
S214001270002960D000285ED02DE9F041A44F8AB046
S21400128000230C460546487C04932B21ADF812003B
S2140012908DF81010FA688DF80B30039306930793B9
S2140012A00893099304A806A99047064610B10AB009
S2140012B0BDE8F0810AAA069942F8140D3B69A960B8
S2140012C004A80621BDF81E809847BDF81E309DF87C
S2140012D01420AA745B075CBF0123EB740DF10B03AB
S2140012E048BFEE746168227A0093284603ABFFF786
S2140012F077FD0028DBD16369002B00F0538195F958
S2140013001220213222D0A2696A602B60637C2B7483
S2140013102378012B4FF0000200F04981022B6A74FB
S21400132006920AD004A803F045FC074680B10820C0
S2140013300AB0BDE8F0810120704706ABE068217C6A
S214001340039AFFF7D1FD0028ECD0B0E70B20AEE7FC
S214001350AE6804A803F0B8FBF16A4FEAD8084FF06D
S214001360FF3321F001014FF4254E012028F0010241
S214001370F162C6F800E0376177617761F76137623E
S2140013807762B762F76230637763B763F763376491
S214001390B764F36433657365B3657366B366C6F89E
S2140013A08870C6F88C308AB17764F3663367F36763
S2140013B07367C6F88030B367C6F88430C6F89030D6
S2140013C0C6F89430C6F89830C6F8A070AE6806988E
S2140013D0F36A9DF80B10039A23F4E023F362336B51
S2140013E043F002033363336B43F001033363336B21
S2140013F023F002033363F36A01F0070123F0E0638E
S21400140043EA0163013A0021F3627266B164E3695C
S21400141033B11A78002A40F081809A78002A3CD1AD
S214001420B36B23F0C00343F04003B3636369002B40
S21400143000F0C080A87C374AA37C126841B200291D
S214001440C0F2A88001F160401B0100F56140DBB2EC
S21400145080F8003352F8313095F912001D6003F021
S21400146069FBAA7C53B2002B0DDB5B099B0003F1E2
S214001470604303F5614302F01F02012101FA02F204
S214001480C3F880211A60E37C1BB1F36A43F00103C2
S214001490F362214BEB60002009E7AA68D978938EA7
S2140014A0277801F0010E23F0100343EA0E1393860B
S2140014B0938E01F0030E23F0C00343EA8E13938647
S2140014C0938E012F43F00C0393867CD0938E002FCF
S2140014D075D023F00C0343F008039386938E23F015
S2140014E0030343F001039386136C23F4402343F471
S2140014F080231364136B002840F0A58023F040730C
S21400150043F000731363938E43F48073938687E7E8
S214001510389202000498020054504700F28E5F781A
S21400152094F800E007F0010C22F0100242EA0C12D8
S214001530F286F28E07F0030C22F0C00242EA8C120A
S214001540F286F28EBEF1010F42F00C02F2865DD0FA
S214001550F28EBEF1000F55D022F00C0242F00802C7
S214001560F286F28E22F0030242F00102F286326C1C
S21400157022F4403242F480323264326B002869D161
S21400158022F4403242F400323263F28E42F4807229
S214001590F28642E7414F00F00F001B010744DBB222
S2140015A03B7657E72278012A7FF4B0AEA7E66B7445
S2140015B00692B7E62378012B7FF465AF3AE723F06F
S2140015C0030393869FE700231365136C23F44023DD
S2140015D043F480231364EB7C012B0CBF4FF6FF73A0
S2140015E04FF0FF339365938E23F00303002938D121
S2140015F043F002039386938E23F00C0343F0040318
S214001600938680E722F00302F286BEE7F164326C2E
S21400161022F4403242F480323264EA7C012A0CBF63
S2140016204FF6FF724FF0FF327265F28E22F0030221
S2140016300FBB42F00202F286F28E22F00C0242F05B
S2140016400402F286A1E7411C23D023F04073136303
S214001650906558E7471C18D022F440323263706514
S21400166093E743F001039386938E23F00C0343F035
S2140016700803938647E742F00102F286F28E22F0D4
S2140016800C0242F00802F2867FE742F440323263F0
S2140016907BE743F04073136335E700BFFCEC00E0E4
S2140016A010B582B0EFF30383154A103B12685BB2A5
S2140016B052F833301C68EFF30380103840B203F062
S2140016C039FA5CB1627CA36852B9236833B16268A8
S2140016D0009200228DF804206846984702B010BD9C
S2140016E0DA6A002122F00102DA6299649A6B22F02B
S2140016F0C0029A63DA6B22F04002DA63E5E700BFC5
S21400170004980200024658B1064B07491B68002B96
S21400171008BF0B460020596803EB8103136070472F
S214001720012070476402FE1FAC93020088B10A4B8A
S2140017301B6863B15A6800F1100103EB820353F88B
S214001740042F40F8042B8842F9D1002070471C2053
S21400175070470120704700BF6402FE1F70B36AB373
S214001760174BF0B51E681EB3164B07781B6800248F
S21400177004E00134B44203F1080319D09D79BD4258
S214001780F7D193F805E04588B5EB9E0FF1D1DD79EA
S21400179090F801E005F00F0CF445EAD1B1EB151F07
S2140017A0E7D19B881470C3F3090353800020F0BD73
S2140017B0DF21FF23117053800B20F0BD01207047FE
S2140017C0F002FE1F0498020020B1034B1B68036062
S2140017D000207047012070475092020070B42A4CD7
S2140017E0216851B1234604F57F70002201E053F8CA
S2140017F0041F83420A44FAD11AB100BE1D2070BCF1
S2140018007047224D22482A600368190CB1F5807F84
S21400181002D0002070BC7047196801390331F8D82F
S2140018201C495E6A8E42F4D12B6001686368486882
S21400183004EB830301EB800101F123002333012134
S2140018404FF47E4503E0013201310138013B25FAB1
S21400185002F4E40707D5072A10D0082A07D01E7816
S2140018600478A642C9D11029EDD10020D2E7047829
S214001870372CE8D01E78A642E5D0BEE706781C785E
S214001880A642E0D2B9E700BFAC9302006402FE1F96
S2140018909CB17F405237465300285ED000295CD06A
S2140018A08B4B2DE9F0439A6890F800C003EB820258
S2140018B09478A44537D24FEA1C1802EB88060CF041
S2140018C00F073589D2F804E025FA07F919F0010F59
S2140018D029D0072FB67A09D902EB88080CF007073B
S2140018E098F80BC00CF00F0C66442D0ADFF8E48164
S2140018F0DFF8E4C118F80780754F08EA05052409E3
S2140019001CF80550023402EB8402AC1902EB4405C5
S21400191032F814206C78C2F30902250603EB820322
S21400192005D4002B4BD14FF4AF60BDE8F08317F819
S214001930222045785208FDB14FF0020E01260427FA
S2140019401C78E40705F1FF3552D5052A00F2BE8063
S214001950DFE802F0332D211C1A05012070479A7823
S2140019601EFB0264033204EB9202920013441A78C0
S21400197054082246002DE3D1042A00F2A480DFE8B2
S21400198002F0636363503B000822EFE79A7817FB88
S21400199002629200EAE793F804C09C7814FB0CF20B
S2140019A0D41C0CF1030204EB92029200DEE71A79D3
S2140019B0033222F003020C32D8E70C22D6E7447832
S2140019C0B4B9DC78C4F303144C72DC780125C4F394
S2140019D003048C728D804088002843D137F822207B
S2140019E00EEB02220A609B78CB800872C86015E076
S2140019F040F27950BDE8F083DA78C2F303124A72F7
S214001A00DA78C2F303028A725878C88000228A8085
S214001A100A72CA605B680B608307E9D50020BDE8E0
S214001A20F083DA78C2F303124A72DA78C2F303025A
S214001A308A725A78CA809A788A80043304200022F0
S214001A40CB6008720A60E9E7DC78C4F303144C72D2
S214001A50DC78C4F303048C721D79ACB28C804088A9
S214001A60844203D840F27A50BDE8F083DC889E6852
S214001A70012A04FB00640C601CD0022A0AD09C7861
S214001A805B78002243EA0424CC800A72CA60002CE9
S214001A90E8D0C3E71C18EA1C247BCC809D780D7226
S214001AA0920805FB002003EB80030C33CB60002C70
S214001AB0D8D0B3E7034400221C7BCC800A72CA60ED
S214001AC0002CCFD0AAE76420BDE8F08300224DE7C3
S214001AD0AC930200B0910200B8910200034B0430B0
S214001AE01B6823F820100020704700BFA802FE1FC6
S214001AF0034B021D1B68002023F82200704700BF1E
S214001B00A802FE1F034B1A68137863F07F03137056
S214001B1000207047A802FE1F034B1A68137803F0D4
S214001B207F03137000207047A802FE1F20B1034BEE
S214001B301B68036000207047012070477092020007
S214001B4060B1012808D1094B1B68002040214122C2
S214001B50187119711A71704701207047034B1B6882
S214001B6040214122987099709A707047A802FE1F13
S214001B70002836D070B51C4986B000230B2201938E
S214001B8002930393049305930546CB688DF80420CF
S214001B9001A802A99847044608B106B070BD134EC6
S214001BA0029B336001A802F08FFF6B6873B1306848
S214001BB02346AA6812F8231002EB830204315288E7
S214001BC020F821206A6801339A42F2D82878002843
S214001BD0E3D032681378002063F07F03137006B0FA
S214001BE070BD0120704700BF38920200A802FE1F99
S214001BF0062070470620704790B10A4B02689A424A
S214001C0001D00720704790F90630074AC0331168A4
S214001C1051F8232022F0807241F8232000207047DC
S214001C200120704700435444AC02FE1F20B1034B12
S214001C301B68036000207047012070479C920200DA
S214001C4010B31A4B02689A4201D007207047D9B1E8
S214001C50174B1B68DB8900229BB28A7190F906201D
S214001C6018041AD4134B53F82230D87800F0C0006A
S214001C7080280BD0DB8940289BB28B8013D038B9E4
S214001C804FF480330B607047012070479B898B8030
S214001C904FF480730B60002070475BB2934204BF22
S214001CA001238B71DEE7DBB28B80F1E700435444FF
S214001CB0B002FE1F0000FE1F0346F0B1114A016885
S214001CC0914201D00720704790F9062012F1210FAB
S214001CD015D030B40C490D4D0C68C032002154F8B4
S214001CE0220020F0807044F8220093F9062008466F
S214001CF045F82210196030BC7047012070470B2051
S214001D00704700BF00435444AC02FE1F0000FE1F95
S214001D1078B31D4B02689A4201D00720704790F9AD
S214001D20063013F1210F26D0184A52F82320916866
S214001D30F9B15168E9B1D17801F0300110291CD011
S214001D40202910D0124AC033126852F8231021F40A
S214001D50803142F8231052F8231041F0807142F887
S214001D602310002070479168890702D152689207B5
S214001D70E8D0012070470B2070479168C907F8D457
S214001D805268D007DED5F4E7004354440000FE1F37
S214001D90AC02FE1F2DE9F04182B001919DF8207043
S214001DA00092BDF8245070B190F90640294A52F8C6
S214001DB02410C97801F0C001802903D0062002B0A3
S214001DC0BDE8F0811DB9012002B0BDE8F081002B0E
S214001DD0F9D0214906688E4201D00720EFE71F4E52
S214001DE01F49D6F800E0D1F80080C0345EF8241011
S214001DF021F080714EF8241098F8001021F01001A0
S214001E0088F80010019990F9064019B152F824603C
S214001E1001997160009919B152F824600099B16077
S214001E2052F82410CC788D81CB818B7BCB7367F3F3
S214001E300514CC70FFF76CFF98F80030002843F0CC
S214001E40100314BF1320002088F8003002B0BDE84D
S214001E50F08100BF0000FE1F00435444AC02FE1F8A
S214001E60B002FE1F00283AD0002938D00B68002B9D
S214001E7035D0DA7812F0C00F04D0DB899BB2B3F508
S214001E80807F2CD8514B02689A422AD02DE9F04721
S214001E904F4E337886B08046894623B34D4B1D6837
S214001EA0B9F80460002302E00133702B35D003F14B
S214001EB0C004DFB255F82420C2F308029642F3D1DC
S214001EC0454955F8242051F82300C2F30802A8F823
S214001ED00420002849D0082006B0BDE8F08701207D
S214001EE07047082070473D4901930822CC6802934A
S214001EF00393049305938DF8042001A80DEB0201CB
S214001F00A0470028E8D1364D029B2B6001A802F0BE
S214001F1051FE074658B10A20DEE7D5F87C320B2082
S214001F20C3F30803A8F8043006B0BDE8F087DFF86E
S214001F30A8A001A802F0C8FD39464FF4E07250464A
S214001F4027F0B9F82B68C3F804A01A7B062542F0E0
S214001F5001021A738DF8045001A802A9A0471D4A71
S214001F60029D1560012333709AE7D9F8002000E03F
S214001F701032D07810F0C00F1CBF907BD0739078D2
S214001F8010F0C00FF4D1164A104D1468227822F0D3
S214001F901002227099F80600D9F8002041F8232094
S214001FA088F80670C8F8005020B9237843F010036C
S214001FB0237091E74046FFF7ABFE2378002843F0F6
S214001FC0100314BF13200020237085E700435444F9
S214001FD0B402FE1FAC02FE1F0000FE1F3892020075
S214001FE0B002FE1FF0B583B001910092002851D0D8
S214001FF090F906402A4951F82450EA7812F0C002B7
S21400200006D1284A056895420CD0072003B0F0BDDB
S21400201013B9132003B0F0BD224E0768B742F4D1BF
S214002020802A33D0204D214A2E681568C03456F8D1
S214002030242022F0807246F824202A7822F010020B
S2140020402A70019A4AB390F90620019E51F8224060
S2140020506660009C1CB151F82240009EA66051F8B4
S2140020602210CA7802F0C002802A0DD002B9CB81B5
S214002070FFF74EFE2B78002843F0100314BF132002
S21400208000202B7003B0F0BD8B81F1E7EA8992B295
S214002090002AC7D1012003B0F0BD90F90620D8E78A
S2140020A00000FE1F00435444AC02FE1FB002FE1F99
S2140020B020B1034B1B680360002070470120704767
S2140020C0A0920200A8B183790BB907207047027965
S2140020D0036823F8121042794AB902795AB91A7974
S2140020E042F040021A71012343710020704700201D
S2140020F07047012070471A7962F07F021A71F2E782
S214002100B0B183790BB907207047027903683AB1FA
S2140021101A7962F07F021A7101234371002070471A
S2140021201A7942F040021A71012343710020704769
S21400213001207047B0B183790BB907207047027948
S21400214003683AB11A7902F07F021A7100234371CC
S214002150184670471A7922F040021A71002343711C
S214002160184670470120704719B110B18B78012BC3
S21400217001D90120704770B50C4686B03E49002351
S2140021802122019302930393049305930646CB689A
S2140021908DF8042001A802A99847054658B9BDF84D
S2140021A00E302278C3F34113002B08BF02239A4255
S2140021B003D340F27A5006B070BD029B336023789A
S2140021C0ADF8063001A802F0F5FCADF80650002880
S2140021D0F1D101A802F078FC23783568002B3CD1B9
S2140021E02B7923F040032B716B79A27803F07F03E1
S2140021F002F0010243EAC2136B71AB79627803F016
S2140022007F0343EAC213AB712278E378FAB94BB383
S2140022102B7A43F040032B729DF8003006A86FF32C
S214002220000300F8183D02F0D1FA9DF80030DB07F5
S21400223005D5EB7923F0070343F00103EB71237810
S21400224033710122002373711846B271B3E773B17C
S2140022502B7A63F07F032B72DEE72B7903F07F0384
S2140022602B71C1E72B7A23F040032B72D4E72B7A2D
S21400227003F07F032B72CFE73892020028B38379EE
S2140022800BB90720704730B50279036883B0BAB13E
S2140022901A7902F07F021A7102AD002421230194FC
S2140022A005F8043D8471037944712846ADF806307C
S2140022B002F006FC284602F0B1FC204603B030BD12
S2140022C01A7922F040021A71E6E70120704700BF33
S2140022D0094A0A4B12680A48916910B4D469196011
S2140022E04FF400420021DC60586059619A601A6120
S2140022F05DF8044B704700BF8002FE1F6802FE1F99
S21400230000127A00374B1B6893F8283013F030021F
S2140023103DD0102A0DD0202A3AD0DFED337A334A4A
S214002320F0EE676A67EEA67AFCEEE77AC2ED057A0B
S2140023307047028D2E4902F0030231F81210002970
S2140023404CD05B0610B44AD5038D13F0100F0CBFAB
S21400235003240024254A038D52F824005DF8044B1C
S21400236007EE900AB8EE677A07EE901AB8EE676A3C
S214002370C3F30523C7EE067A013306EE903AFAEE6B
S214002380EF6A67EEA67AFCEEE77AC2ED057A70474A
S21400239090F82B30174A9B0932F813100029F6D014
S2140023A0124A90F82B30D2ED037A03F01F03B8EEF2
S2140023B0677A06EE903A07EE901AF8EE666AB8EE7E
S2140023C0676AF7EE007A76EEA76AC7EE067A67EED9
S2140023D0A67AFCEEE77AC2ED057A704770470324CA
S2140023E0B8E700BF8002FE1F000000006802FE1F64
S2140023F0C4920200BC920200F8B50D4B1B6806465C
S21400240093F8205093F8217000200C4602F07EFCD2
S21400241096F81324E9B2BC400C4022EA010344EAD1
S214002420030186F813140020BDE8F84002F03EBC15
S2140024308002FE1FF8B50D4B1B68064693F8225027
S21400244093F8237000200C4602F060FC96F8812476
S214002450E9B2BC400C4022EA010344EA030186F8D4
S21400246081140020BDE8F84002F020BC8002FE1F68
S21400247038B505460C46002002F048FC052C0AD864
S214002480DFE804F019242F033A0E95F8323023F0D3
S214002490010385F832300020BDE8384002F006BC63
S2140024A095F82A3023F0010385F82A300020BDE88D
S2140024B0384002F0FBBB95F8363023F0010385F870
S2140024C036300020BDE8384002F0F0BB95F83830D2
S2140024D023F0010385F838300020BDE8384002F0CC
S2140024E0E5BB95F8903423F0010385F8903400207E
S2140024F0BDE8384002F0DABB95F8803423F00103DB
S21400250085F880340020BDE8384002F0CFBB00BF1D
S21400251038B505460C46002002F0F8FB052C0AD814
S214002520DFE804F019242F033A0E95F8323043F012
S214002530010385F832300020BDE8384002F0B6BB13
S21400254095F82A3043F0010385F82A300020BDE8CC
S214002550384002F0ABBB95F8363043F0010385F8FF
S21400256036300020BDE8384002F0A0BB95F8383081
S21400257043F0010385F838300020BDE8384002F00B
S21400258095BB95F8903443F0010385F8903400200D
S214002590BDE8384002F08ABB95F8803443F001036A
S2140025A085F880340020BDE8384002F07FBB00BFCD
S2140025B003290ED0052907D009B10020704790F8EE
S2140025C03C0000F00100704790F83C00C0F340105B
S2140025D0704790F83C00C0F3C000704705292ED81D
S2140025E0DFE801F00A11181F260390F82A0000F011
S2140025F0010080F00100704790F8360000F00100FE
S21400260080F00100704790F8380000F0010080F07C
S2140026100100704790F8900400F0010080F001007F
S214002620704790F8320000F0010080F0010070471B
S21400263090F8800400F0010080F001007047002050
S214002640704700BF036A90F82630704738B50546D5
S21400265000200C4602F05AFB95F8133404F00101F2
S21400266023F0400343EA811185F813140020BDE8E7
S214002670384002F01BBB00BF38B5054600201446A4
S21400268002F044FB95F8A22004F00F0422F00F029B
S214002690144385F8A2400020BDE8384002F006BB8F
S2140026A0084B1B6893F8283013F0300F04D1042829
S2140026B08CBF00200120704705288CBF0020012019
S2140026C0704700BF8002FE1F06288CBF0020012036
S2140026D0704700BF90F8260000F00700704700BF64
S2140026E038B5054600200C4602F010FB95F826107B
S2140026F004F0070421F007010C4385F8264000206B
S214002700BDE8384002F0D2BA074B1B6893F8283071
S2140027105B0601D403207047038D13F0100F0CBF27
S21400272003200020704700BF8002FE1F38B5044615
S21400273000200D4602F0EAFA238D032D0CBF23F08D
S214002740100343F0100323850020BDE8384002F054
S214002750ADBA00BF38B5224C2DED028B236893F836
S214002760283003F03003102B0546B0EE408A1CD00C
S214002770202B02D0BDEC028B38BD002002F0C6FA3A
S214002780FCEEC87A95F82B1017EE903A013B03F052
S2140027901F0221F01F03134385F82B30BDEC028B7C
S2140027A00020BDE8384002F081BA002002F0AEFA00
S2140027B078EE087A2A8DFCEEE77A22F47C5217EE41
S2140027C0903A013B03F03F0342EA03232B850020A7
S2140027D002F06CFA236893F8283003F03003C7E75A
S2140027E08002FE1F70B51E4C236893F8283003F055
S2140027F03003102B82B0054619D0202B01D002B032
S21400280070BD184B002033F8114002F07FFA95F89F
S2140028102B3004F0030403F03F0343EA8413002044
S21400282085F82B3002B0BDE8704002F03FBA0E4B80
S2140028300191002033F8116002F068FA2B8D06F043
S214002840030623F003031E432E85002002F02EFA13
S2140028502368019993F8283003F03003CDE700BFD2
S2140028608002FE1FD4920200CC92020038B51A4BAA
S2140028701A6892F8293092F82A200546180748BFA9
S21400288008784FF0000448BF60F30E34D80644BF03
S214002890487860F30A24980644BF887860F30614E4
S2140028A0580644BFC87860F30204D20744BF0A79CA
S2140028B062F312441B0644BF4B7963F31E748B7994
S2140028C0002063F31A6402F021FA2C620020BDE8AF
S2140028D0384002F0EBB900BF8002FE1F036AC3F364
S2140028E002330B70036AC3F302234B70036AC3F30D
S2140028F002138B70036A03F00703CB70036AC3F3FB
S21400290002430B71036AC3F302734B71036AC3F38A
S21400291002638B71704700BF144B42781B6893F8B4
S214002920241091421ED393F8262090ED017A07EEEC
S214002930902AF8EE677AF4EEC77AF1EE10FA11D420
S21400294093F8253007EE903AF8EE677AB4EEE77A19
S214002950F1EE10FA06D40078032805D0B0FA80F01D
S2140029604009704700207047012070478002FE1F14
S214002970062921D8DFE801F0080C1014181C040002
S214002980006AC0F302607047006AC0F30230704706
S214002990006AC0F302207047006AC0F30210704756
S2140029A0006A00F007007047006AC0F302407047F4
S2140029B0006AC0F3027070470020704710B50446E6
S2140029C0FFF7D6FF94F82630034A03F0070352F8C1
S2140029D0233023FA00F010BD6802FE1F024B53F8A6
S2140029E02000C840704700BF6802FE1F30B504468E
S2140029F083B001200D4602F089F902A8002300F8F2
S214002A00013D01F0B1FD94F8AA30D806FBD494F845
S214002A10A030D906F7D494F8AA3023F0010384F83E
S214002A20AA3094F8AA30DA06FBD494F8A030DB0675
S214002A30F7D4042D2BD094F8A02005F0030322F041
S214002A400302134384F8A03094F8AA30D806FBD4C7
S214002A5094F8A030D906F7D494F8AA30042D0CBF09
S214002A6043F0010323F0010384F8AA3094F8AA3057
S214002A70DA06FBD494F8A030DB06F7D49DF80700FE
S214002A8001F086FD012002F011F903B030BD94F884
S214002A90A03043F0030384F8A030D5E790F8AA30BE
S214002AA0DB075ABF90F8A00000F003000420704730
S214002AB010B50446002002F029F994F8403063F07F
S214002AC07F0384F8403094F8403043F0010384F8E4
S214002AD040300020BDE8104002F0E8B810B50446CB
S214002AE0002002F013F994F8403023F0010384F834
S214002AF0403094F8403003F07F0384F840300020E4
S214002B00BDE8104002F0D2B890F84000C009704707
S214002B1090F8410000F00100704700BF38B590F80B
S214002B20413013F0010401D1002038BD05460020D5
S214002B3002F0ECF895F8413023F0010385F84130B7
S214002B40002002F0B3F8204638BD00BF38B5054671
S214002B5000200C4602F0DAF895F8301004F0010474
S214002B6021F001010C4385F830400020BDE83840D4
S214002B7002F09CB810B50446002002F0C7F894F89E
S214002B80523043F0010384F852300020BDE8104074
S214002B9002F08CB810B50446002002F0B7F894F89E
S214002BA0523023F0010384F852300020BDE8104074
S214002BB002F07CB870B5044600200D46164602F0BA
S214002BC0A5F894F83E3003F07F0384F83E3094F87E
S214002BD03E3006F0070223F0700343EA021284F840
S214002BE03E2094F83E1005F0070521F007010D433E
S214002BF084F83E500020BDE8704002F057B800BF91
S214002C0010B50446002002F081F894F83E3063F0D8
S214002C107F0384F83E300020BDE8104002F046B83E
S214002C2010B50446002002F071F894F83E3003F028
S214002C307F0384F83E300020BDE8104002F036B82E
S214002C4010B50446002002F061F894F8533043F0C3
S214002C50010384F853300020BDE8104002F026B887
S214002C6010B50446002002F051F894F8533023F0D3
S214002C70010384F853300020BDE8104002F016B877
S214002C8038B5054600200C4602F040F895F824308A
S214002C9004F0070123F0700343EA011185F82410BD
S214002CA00020BDE8384002F001B800BF70B40F4BFA
S214002CB00F4C1D680021196094F823200138B0F1EC
S214002CC0807FD2B20DD2F026072502F0F0025860BF
S214002CD084F8236099601D6084F82320012070BC6E
S214002CE070471D60084670BC704700BF10E000E0EB
S214002CF000ED00E090F8503001F00F0123F00F03D4
S214002D00194380F85010704790F8500000F00F00FC
S214002D10704700BF90F8503063F07F0380F8503063
S214002D20704700BF90F8503003F07F0380F85030B3
S214002D30704700BF90F85000C009704790F8D13037
S214002D4021B123F0010380F8D130704743F001032E
S214002D5080F8D130704700BF90F8D13063F07F0321
S214002D6080F8D130704700BF90F8D13003F07F0371
S214002D7080F8D130704700BF90F8D100C009704786
S214002D8038B5054600200C4601F0C0FF95F8A510A2
S214002D9004F0070421F007010C4385F8A540002045
S214002DA0BDE8384001F082BF20B1034B1B680360CA
S214002DB000207047012070475093020030B52A4C1F
S214002DC087B0204601F00EFD06A8284B00250322FA
S214002DD00095DB6800F8182D02A902950395049566
S214002DE005959847029860604FF6FF732946019351
S214002DF0FFF7F4FB28B910E0019B43B1019B013BB0
S214002E00019360680021FFF7D3FB0028F4D0019BF4
S214002E101BB94FF4CD7007B030BD60680621FFF7D0
S214002E20AFFF4FF6FF730193FFF752FA6068042175
S214002E30FFF76EFB04E0019B43B1019B013B01934E
S214002E4060680421FFF7CAFB0028F4D1019B002B21
S214002E50DFD0606804210522FFF7F4FB60680021DC
S214002E60FFF7E8FA0020D6E78002FE1F389202003D
S214002E7070B169B170B5074E044670680D46FFF72D
S214002E8029FC294620707068FFF728FD002070BDD9
S214002E90012070478002FE1F70B582B0002940D026
S214002EA0054600283AD0344C6068FFF7F7FD042842
S214002EB0064633D060686946FFF710FD23689A68B7
S214002EC00AB1032E37D0DA68F2B1022E1CD193F87D
S214002ED029205969160733D4D00638D496063BD431
S214002EE050063ED4120603D59DF805208A422BD301
S214002EF093F82A30DB0703D59DF804308B4223D3A2
S214002F009DF806308B421FD32946012001F07CFC39
S214002F106068FFF7CDFD002002B070BD012002B052
S214002F2070BD154D6868FFF7F3FD0446F0B14FF429
S214002F30CB7002B070BD93F8292019691007CBD565
S214002F409DF800008842C7D2052002B070BD9DF8EB
S214002F5001008842C2D2F7E79DF802008842BFD23D
S214002F60F2E79DF803008842BCD2EDE76868FFF7F9
S214002F70B5FD2046D3E700BF8002FE1F38B5124CD1
S214002F806068FFF7C5FD78B16068FFF7A3FB2368AC
S214002F9093F8283013F0300F054603D05B0608D4AC
S214002FA005280DD0032D0BD06068FFF7B7FD002075
S214002FB038BD6068FFF7A8FB052DF3D10328F3D1D1
S214002FC040F2971038BD00BF8002FE1F08B5034BC5
S214002FD001465868FFF7BAFD002008BD8002FE1FB4
S214002FE008B5034B5868FFF7C5FD002008BD00BFB5
S214002FF08002FE1F08B5034B5868FFF7CBFD002084
S21400300008BD00BF8002FE1F08B5044B0A460146F5
S2140030105868FFF7CFFD002008BD00BF8002FE1FE6
S21400302008B5034B5868FFF7EBFD002008BD00BF4E
S2140030308002FE1F08B5034B5868FFF7F1FD00201D
S21400304008BD00BF8002FE1F38B50446FFF728FB08
S21400305008B9032038BD631E012B11D9042C0FD0EC
S2140030602CB1032C03D0052C01D0002038BD114D07
S21400307021466868FFF7B2FA78B94FF4C87038BDD1
S2140030800C4B21465868FFF7A9FA40F29113002826
S21400309014BF18464FF4C87038BD68682146FFF75D
S2140030A087FA40F2931300280CBF18464FF4C970F5
S2140030B038BD00BF8002FE1F70B506464FF6FE7490
S2140030C040F2931501E0013C0CD03046FFF7BCFF00
S2140030D0A842F8D038B16FF4C873C318022B38BFB3
S2140030E0002070BD284670BD70B582B00D460446FF
S2140030F0FFF7D6FA10B9032002B070BD5C4E052C5F
S2140031002146706815D0FFF769FA18B140F29110A1
S21400311002B070BD012C4CD9032C23D0631E012BAA
S21400312063D9042C2BD0002C67D0032C1FD0002092
S214003130E2E7FFF753FA002842D1002D5BD0706813
S214003140FFF7C8FA0528E1D02846FFF7E5FB002878
S214003150D1D070682978FFF741FA002854D14FF48F
S214003160CA70C9E77068FFF799FC042826D0706813
S2140031702146FFF71DFA48B340F29310BCE72146FC
S2140031807068FFF775F94FF6FF73019304E0019B33
S21400319043B1019B013B019370680421FFF71EFABF
S2140031A00028F4D0019B002B0CBF4FF4CD700020FC
S2140031B0A2E77068FFF772FC0428AFD105209BE7F2
S2140031C07068FFF79FF840F2911095E733687068D3
S2140031D093F82710FFF710F970680021FFF736FA0A
S2140031E0706803210922FFF747FA70682146FFF747
S2140031F03FF9002080E701207EE770682146FFF750
S214003200D7F90028B8D1F0E721467068FFF7D0F963
S2140032100028B1D1336893F828305B0603D5706870
S2140032202978FFF783FA69787068114CFFF7DAFAA5
S21400323095ED010A7068FFF78DFA7068FFF762F87F
S214003240336893F82810052001F00F01FFF7C6FB3E
S21400325033685B68984288BF0021606898BF012188
S214003260FFF7C4FB70680521FFF702F95FE700BFB0
S2140032708002FE1F70B582B00446FFF711FA10B93F
S214003280032002B070BD2C4D6868FFF723FA844215
S2140032902BD0052824D0012C2AD06868264E21463B
S2140032A0FFF79CF9D0B1022C14D0042C29D01CB105
S2140032B0032C01D0052C11D168681F4D2146FFF75D
S2140032C077F938B940F29310DBE770682146FFF7CC
S2140032D085F918B168682146FFF71AF90020D0E78B
S2140032E06868FFF711FAA042D5D140F29110C8E7FE
S2140032F06868114EFFF708FC0028E6D040F29510EB
S214003300BFE770682146FFF703F94FF6FF73019396
S21400331004E0019B43B1019B013B019368680421D3
S214003320FFF75CF90028F4D1019B002B0CBF4FF48B
S214003330CD700020A5E700BF8002FE1F01280FD039
S214003340022801D00020704708B508460021FFF784
S214003350CBFE40B140F29113984208BF002008BD52
S2140033600846FFF787BF002008BD00BFF0B587B04E
S2140033700C460546FFF794F910B9032007B0F0BDD8
S21400338064B3694E326892F82930190720D5277839
S214003390A079B842F1D861788F42EED894F803E06D
S2140033A0BE45EAD88842E8D823F07F0303F0FF0141
S2140033B013B163798342E0D392F82A30DF0702D54F
S2140033C023798342D9D3042D13D148B10520D5E7FC
S2140033D06178E0788842D0D8A079E3E70120CDE78D
S2140033E063790BB10029F1D17068FFF78DFB0028D7
S2140033F0ECD170684C4F0021FFF7F8FA0023A17952
S2140034008DF8083028468DF81430FFF7E7FA0621C5
S21400341003907068FFF7D2FA049002A801F034F91E
S2140034200028ABD17868FFF755F9854204D07DB304
S214003430032D2DD0052D2BD070683B4F6946FFF726
S2140034404DFA9DF80620A3799A422AD2214678683A
S214003450FFF70CFA78682946FFF742F901F004F9FD
S214003460324B042D186025D0022D33D0012D3AD0D2
S214003470032D47D0052D40D070680621FFF79EFA31
S2140034800123049002A88DF8083001F0FDF875E7D6
S21400349070682946FFF78CF80028CDD140F29310CB
S2140034A06CE778682946FFF71BF978682146FFF72E
S2140034B0DDF9D3E733681C4A93F82810090617D4B9
S2140034C09A685AB95B68002BD6D070680121FFF75E
S2140034D08DFAD1E733689A68002AF3D07068032122
S2140034E0FFF784FAC8E733685B68002BC4D0ECE7C4
S2140034F050682946FFF77AFABEE733685B68984259
S214003500BAD8E2E733685A68904201D9002AB3D1A4
S2140035109B68984204D9002BAED0002ADED0D4E7B0
S214003520002BA9D0DAE700BF8002FE1F0803FE1FAB
S21400353000287DD02DE9F047054686B006A8002372
S2140035402F7800F8113D04A98DF810308DF8113051
S2140035508DF812308DF813308DF814308DF8153044
S2140035608DF81630FFF784FC95F815E0EE7C297D83
S214003570EA7DAB7D2C7E8DF808E038468DF80A6033
S2140035808DF809108DF80B208DF80C308DF80D4055
S214003590FFF786F818B9032006B0BDE8F0872B7849
S2140035A006AA134413F8103C012BF4D0022C41D089
S2140035B0DFF8E480D8F8003093F8283013F0300FA6
S2140035C014BF06260526002440F2911905F1040AC8
S2140035D0052CE1B248D002AB185DFFF7AFFE08B18C
S2140035E04845D9D10134B442F2D13846FFF764FDDC
S2140035F00028D1D105F10C013846FFF7B7FE0028A8
S214003600CAD19DF80740A74210D006AB234413F852
S214003610100C012822D0D8F80400FFF775F806AB86
S2140036200344014613F8100C012810D00020B3E71D
S214003630012070472879FFF733F80028ABD02B79A4
S21400364006AA134413F8103C012BB1D1A3E7052CAE
S214003650ECD18F42EAD0FFF771FE9DE72146FFF7D7
S2140036606DFE0028D7D097E79DF80D30022BB2D11B
S21400367028790021FFF738FD08B148458CD1287914
S214003680FFF71AFD5146002886D10520FFF72CFDCE
S2140036900028A7D0A4E700BF8002FE1F51B170B576
S2140036A000250D600C460646FFF70EF828B90323E2
S2140036B0184670BD012318467047044B31465868BB
S2140036C0FFF77CF92B462060184670BD8002FE1F6F
S2140036D038B5114D2B6893F8290010F0010000D181
S2140036E038BD002001F012FB68680C4CFFF712FB97
S2140036F001E06CB1013C6868FFF71CFB0028F8D0BD
S214003700002001F0D3FA002C0CBF1420002038BD96
S21400371001F0CCFA1420E3E78002FE1FFFFF0F0043
S21400372038B5114D2B6893F8290010F0010000D130
S21400373038BD002001F0EAFA68680C4CFFF7F2FA90
S21400374001E064B1013C6868FFF7F4FA0028F8D19C
S21400375001F0ACFA002C0CBF1420002038BD204627
S21400376001F0A4FA1420E3E78002FE1FFFFF0F001B
S214003770F8B51C4D2B6893F8293013F0010324D0BC
S214003780194B1E5CFF2E01D10320F8BD002001F06E
S214003790BDFA6868154CFFF7CDFA0746FFF7C0FF7D
S2140037A068683146FFF7A6FA01E09CB1013C6868FC
S2140037B0FFF7AAFA8642F8D14FB9002001F076FA50
S2140037C0002C0CBF14200020F8BD1846F8BDFFF7EB
S2140037D07FFFF2E7002FFAD1384601F067FA14208F
S2140037E0F8BD00BF8002FE1F48930200FFFF0F00D7
S2140037F008B5002001F08AFA034B5868FFF7ACFAC8
S214003800002001F053FA08BD8002FE1F08B5054BE4
S2140038101B6893F82A309B0701D5FFF7E9FF0020C5
S21400382008BD00BF8002FE1F08B5002001F06EFA3A
S214003830034B5868FFF798FA002001F037FA08BDE6
S2140038408002FE1F08B5054B1B6893F82A309B07BD
S21400385001D5FFF7E9FF002008BD00BF8002FE1F6C
S21400386070B5164D2B6893F82A3003F002031BB38D
S214003870032802D008B1032070BD0446002001F0E2
S21400388045FA6868FFF778FA2B6893F82A309A07A3
S214003890064601D5FFF7C8FF6868084D2146FFF7C2
S2140038A04DFA36B12B6893F82A309B0701D5FFF7FF
S2140038B09FFF002001F0FAF9002070BD8002FE1F75
S2140038C008B5054B1A6892F82920920702D5586861
S2140038D0FFF7B6F9002008BD8002FE1F08B5054BAD
S2140038E01A6892F82920920702D55868FFF7B8F9A7
S2140038F0002008BD8002FE1F08B5064B1A6892F825
S2140039002920520703D501465868FFF7B9F9002069
S21400391008BD00BF8002FE1F08B90320704738B5F7
S2140039200D46044600F0A0FE07EE900AF8EE676A21
S214003930F7EE007AC7EEA66A07EE905A07EE104A30
S214003940F8EE677AB8EE477A66EEA77AC7EE277A79
S214003950FCEEE77A17EE900AFFF7A8F900280CBFEE
S2140039601220002038BD00BF20B1034B1B68036047
S21400397000207047012070477C93020088B1104BEE
S214003980426A9A4201D00720704783694BB190F88B
S2140039902020022A07D01A8842F400721A800020DB
S2140039A07047012070471888C0F3C03030B91A88B5
S2140039B06FEA42426FEA52421A8070470820704708
S2140039C04344415298B10B4B426A9A4201D00720B9
S2140039D0704783695BB190F82020022A1A8814BFCA
S2140039E022F40072C2F30E021A80002070470120F3
S2140039F0704700BF4344415270B1084B426A9A4236
S214003A0001D007207047836933B11B8813F4004F39
S214003A100CBF0020082070470120704743444152E5
S214003A20D0B1CB1CDBB21E2B01D903207047002976
S214003A3030B40ADB104C0588012354F825408B402F
S214003A40234202D1032030BC70470C4B446A9C4290
S214003A5004D0072030BC7047012070473AB1836914
S214003A603BB11031002033F811301380EBE7022011
S214003A70E9E70120E7E700BFB802FE1F43444152D2
S214003A8030B129B1144B426A9A4203D007207047DE
S214003A90012070470B78DA1CD2B2122A16D85BB215
S214003AA0002B30B407DB0D4C0588012254F8254066
S214003AB09A4022420CD04A78062A09D9816949B12F
S214003AC00B44002083F8E02030BC7047032070478A
S214003AD00320F9E70120F7E743444152B802FE1FEE
S214003AE030B129B1394B426A9A4203D00720704759
S214003AF0012070470379012B32D0F0B5876983B077
S214003B00002F60D0856A002D2CD14D60054602A896
S214003B100C46002320222E49019300F8042D2A8803
S214003B200093ADF806200B696A46022198472B7869
S214003B30BDF80220628104335B004FF0FF3223722F
S214003B40E2602B7A012B04D06B882382002003B01E
S214003B50F0BD2A695178137843EA0123E360F3E75E
S214003B60032070474FF0FF330122013302FA03F4BB
S214003B702C42FAD0B4F1805F1FD0B4F1005F08BFCA
S214003B806FF00103103307EB43030B60202201267E
S214003B90013A06FA02F42C42FAD0B4F1805F0FD054
S214003BA0B4F1005F08BF6FF00102103207EB42026B
S214003BB0D31A5B1001334B60A8E76FF00203E1E70E
S214003BC06FF00202F1E70120C1E700BF4344415213
S214003BD03892020030B5B0F8803023F00103A0F828
S214003BE080300388C3F34133012B038A43F47C53AC
S214003BF083B00D4603821CD0002404804482202318
S214003C002A88009468468DF80030ADF8022000F04F
S214003C1057FFAB6ADB000AD5EB6803B11C7002A83D
S214003C2000222223019200F8043D00F049FF03B071
S214003C3030BD038A43F03F030382DDE7002877D0D8
S214003C403C4B426A9A4201D0072070478369002B9A
S214003C506ED030B590F82C30044658B2002210F1E1
S214003C60210F83B0626225D0904219DB40092030D4
S214003C700121314D03F01F0301FA03F345F820300C
S214003C80BFF34F8FBFF36F8F94F82C3058B290422B
S214003C9006DB420903F01F036032994045F8221004
S214003CA000F048FF254B94F92C201B6853F832305F
S214003CB000221A6094F82D3058B210F1210F25D04A
S214003CC0002819DB4009203001211B4D03F01F039B
S214003CD001FA03F345F82030BFF34F8FBFF36F8F21
S214003CE094F82D3058B2002806DB420903F01F0373
S214003CF06032994045F8221000F01CFF0F4B94F9F3
S214003D002D201B6853F8323000221A60A069214625
S214003D10FFF760FF02A800252023019500F8043D68
S214003D202388ADF8063000F079FF284603B030BD92
S214003D30012070474344415200E100E0049802002D
S214003D4030B129B1AD4B426A9A4203D00720704782
S214003D50012070472DE9F041866986B056B30D46BE
S214003D60A74A01882B6852F82120044623B903206D
S214003D70A36206B0BDE8F08142F04052D2431A4238
S214003D80F5D13188C1F34131012915D06A68002A7E
S214003D90EDD1002302A802930393049300F006FDDE
S214003DA09DF8082093070ED46B6813F0405F0AD086
S214003DB02B68DCE70120DCE769680029D7D01A43C6
S214003DC00A42D4D1E5E72B6813F0405109D0308879
S214003DD00706CCD4500700F1708196F87A20002AA6
S214003DE0C5D1327B520700F063816A68E9681A43DE
S214003DF031EA0202BBD10029B9D02A7C002A40F061
S214003E006A819BB2B380AB88B382AB8933816B88FF
S214003E10F380EB88F382EB8973812B6813F0405FA5
S214003E2003D16B6813F0405F65D0002302A80293AD
S214003E3003930493019300F0B9FC724B9DF81000B5
S214003E409B6901A99847019B6F4A934202D80320B9
S214003E502B688DE70028FAD16C49039A6C4FA1FBBA
S214003E6003139B0C02FB03F3A7FB0337BF09FB1FDF
S214003E70F82BECD82B68DA0002D46A68D2001CD57E
S214003E80FBB286F8DE30E379012B00F0F3802B6876
S214003E9013F0805F738A00F0A88043F48073738207
S214003EA0738A23F480637382EB68728AC3F30073A9
S214003EB022F00102134373822B68980002D46B68C9
S214003EC0990018D5FFB286F8DF702B6813F0005FF4
S214003ED0738A00F0828043F400737382738A23F43B
S214003EE000637382EA68738AC2F3407223F00203A7
S214003EF043EA420373822B7C6A7C03F0030342EAA4
S214003F004323A6F866302B8948F2010293422ED04E
S214003F10A6F880302379D4F81880022B1FD0B8F882
S214003F200070C7F34137012F2BD094F92C0010F105
S214003F30210F14D000F0FEFD94F82C2053B2002B75
S214003F400DDB5B099B0003F1604303F5614302F060
S214003F501F02012101FA02F2C3F880211A602A89A1
S214003F6048F201039A4207D02B68002000E7237925
S214003F70D4F81880022BD2D148F20103A6F880307C
S214003F80F2E72A8948F201039A4243D094F92D00B9
S214003F9010F1210F12D000F0CDFD94F82D2053B271
S214003FA0002B0BDB5B099B0003F1604303F56143C9
S214003FB002F01F029740C3F880711F60B8F8003007
S214003FC043F04003A8F80030B8F8103023F03F0361
S214003FD043F00A03A8F81030A7E723F400737382AF
S214003FE0738A43F4006373827CE723F480737382DE
S214003FF0738A43F48063738256E700BF434441529A
S214004000B802FE1FDC9202003F420F0083DE1B4315
S214004010D34D6210B8F8103043F03F03A8F81030C4
S21400402094F82D2050B210F1210F1CD0002818DB78
S21400403043092033444902F01F0207FA02F241F80E
S2140040402320BFF34F8FBFF36F8F94F82D2050B20D
S214004050002806DB430902F01F026033974041F850
S214004060237000F067FDB8F8003023F04003A8F88E
S21400407000305AE735480023222201930293039327
S2140040800493059302A9C3688DF8042001A89847F5
S21400409000287FF4DDAE01A800F016FDE3681A786C
S2140040A062F07F021A701A7842F010021A70EEE67A
S2140040B0EA68002A7FF45BAE9FE6B1F1405F3FF40A
S2140040C056AE23F07042002A7FF451AE2279002AC1
S2140040D07FF44DAE85E600210C2202A824F0EBFF0B
S2140040E002A800F063FB9DF80830DB077FF560AEA2
S2140040F02A7C072A3FF65CAE6B7C032B7FF658AE15
S21400410037882B686968C7F34137012F02EA030036
S21400411001EA02010DD082427FF429AE32881706EA
S2140041200DD400293FF46DAE2A89002A7FF41FAE15
S21400413067E68242F2D08A427FF419AEEEE70028A4
S2140041407FF415AEEDE700BF00E100E03892020014
S21400415078B371B38B888A78C3F30E036BB9F0B566
S2140041608B79032B8DB00AD903F0FD04812C06D081
S214004170052B04D003200DB0F0BD03207047CC798A
S21400418014F0DF0FF6D10F7A022FF3D8022AF1D8F7
S214004190CC780CB1052BEDD0CB680BB1022AE9D058
S2140041A0012A00F04681B34C456AA54203D1082097
S2140041B0E1E7012070470546AF4E08884FF0200E15
S2140041C00C460969EB6100230393089309930A934D
S2140041D00B932880ADF80E006961F3682A7185F8A4
S2140041E020708DF80CE003A80DEB0E019847002810
S2140041F0C1D1BDF82620089BAB61C2F382035B00E9
S214004200C2F3401208336B71AA719C49228851F898
S214004210220040B90B9F788841F82200FF8840EAC8
S214004220074041F822000C2B00F00A810E2B00F00C
S2140042300C8103A800F0BEFC00289CD1089008AAB8
S214004240376903A80221B8479DF82030E26885F850
S2140042502C3058B2002A00F04D8110F1210F00F0EA
S2140042600481874AA17A126801920028C0F24F8121
S21400427000F1604E0B010EF5614EDBB28EF8003396
S21400428095F82C30019A52F8302058B20028156064
S2140042901ADB4209203201217A4F03F01F0301FA8C
S2140042A003F347F82230BFF34F8FBFF36F8F95F8B5
S2140042B02C3058B2002806DB420903F01F03603298
S2140042C0994047F82210376900F034FC08AA03A882
S2140042D00321B847A3789DF8202085F82D20012BD0
S2140042E050B200F0BA8010F1210F31D06449E37A61
S2140042F009680028C0F2038100F160421B0102F544
S2140043006142DBB282F8003395F82D2051F8303048
S21400431050B200281D6019DB430920330121594F94
S21400432002F01F0201FA02F247F82320BFF34F8F74
S214004330BFF36F8F95F82D2050B2002806DB430997
S21400434002F01F026033914047F8231000F0F2FBA2
S2140043500027EF712F722F61EF6005A8059706976B
S214004360079700F023FA9DF81430049722228DF860
S2140043701020DA0600F18880190700F1A880BDF841
S21400438016306B80A8692946FFF724FCAE6923889F
S2140043900027202208A808978DF82020ADF82230A4
S2140043A000F092FB378077823388A27823F4C043EC
S2140043B002F0030243EA42333380338823F080035B
S2140043C03380237A012B71D03BB9338843F4807352
S2140043D03380338A23F47C533382F389E27823F0E4
S2140043E0060302F0030243EA4203F381F389A2883C
S2140043F0C3F30E03A2F50042B2FA82F2520943EA70
S214004400C233F381E279F389A2F1200223F020037C
S214004410B2FA82F2520943EA4213F381A379337364
S214004420AB79012B49D00023124AAB6218466A6268
S214004430A1E60D8940F20114A5427FF49BAEB2E6D8
S214004440E378022B3FF696AEF3E6E378032B3FF4D1
S214004450F0AE002B7FF48EAEEBE6E368002B3FF465
S21400446042AF10F1210F7FF441AF03A800F0D6FB56
S2140044700B2080E64344415238920200B802FE1FE9
S2140044800498020000E100E0089709970A970B9746
S214004490F36804A808A9984700287FF473AF0121A1
S2140044A0089A9DF81430E971EA6065E7338A23F4C8
S2140044B07C5343F4106333828FE7AB690022A3F882
S2140044C0B021AB6949F69912A3F8A021ABE7002307
S2140044D00127F2688DF81170089309930A930B93DD
S2140044E004A808A9904700287FF44CAF089B2F72B9
S2140044F02B6144E710F1210F3FF4E8AEB1E6084F18
S21400450002F00F021B011744DBB23B76FCE6044ABE
S21400451003F00F031A440901CBB21376B0E600BFCE
S214004520FCEC00E010B582B0EFF303830D4A103BBD
S21400453012685BB252F833301C68EFF30380103811
S21400454040B200F0F7FA5CB12188E3696269ADF821
S214004550001000218DF8021001920BB168469847B2
S21400456002B010BD0498020068B1084AB2F80031E3
S21400457003F00103037092F800316FF3000382F832
S2140045800031002070470120704700BF00C0014086
S214004590104991F8043143F0010381F80431B1F871
S2140045A00431DB070CD54FF0FF3300E033B1B1F830
S2140045B00421D20703F1FF33F8D40BB91420704757
S2140045C0044A92F8003160F3000382F800310020BC
S2140045D0704700BF00C0014070B5214D82B02B6807
S2140045E098470120FFF7D4FF0021AE680320B047AC
S2140045F001211C4AEC698DF80110032301928DF805
S21400460000300320A047B0F5C97FFAD169460520DF
S214004610B0470520A047B0F5C97FFAD10022012493
S214004620022369468DF806208DF801308DF8023099
S2140046308DF805308DF800402B698DF803408DF815
S2140046400440052098472B6E04209847AB6A204606
S2140046509847EB6A9847AB6D984702B070BD00BFAD
S214004660DC9202000000A04100B583B002A900233E
S21400467041F8043D034B06209B699847019803B018
S2140046805DF804FBDC920200037870B423B1012BC2
S2140046903CD0002070BC704742683E498A426BD9C5
S2140046A03D4B3E4EF1251D71197A41F004011972F9
S2140046B0197A41F008011972197A41F0010119724C
S2140046C0197AF02441F00201B24219721C7105D920
S2140046D01D71197A41F0100119721C71304B314965
S2140046E09A4294BF0123022303731C4691F81C319F
S2140046F003F00703A3423FBF91F81C3123F00703E2
S214004700234381F81C310378012BC2D18368214AE8
S21400471093423BD8204BF1221A711A7A22F00402F7
S2140047201A721A7A22F008021A721A7A22F0010213
S2140047301A721A7AF02122F002021A721971164BB6
S214004740F1221A711A7AF02122F010021A721971E7
S2140047501449037B91F81C2102F00702934298D07B
S21400476091F81C2103F0070322F00702134381F897
S2140047701C31002070BC70470B498A42AED8094AEB
S214004780037392F81C31002070BC7047034A9342B2
S214004790DED8D4E7000E27070020004000C2EB0B4F
S2140047A00068890900C0014000B4C404037841F2DF
S2140047B0360203F0E0034260022143F0130341F2A5
S2140047C00402816003704280704700BF03786FF375
S2140047D000030370704700BF037843F003030370C1
S2140047E0704700BF014B0360704700BF8093020014
S2140047F0044B002103F1300243F8041B9342FBD123
S214004800704700BFC002FE1F024B43F82010002076
S214004810704700BFC002FE1F08B57A4BB3F84031A0
S214004820D90700F1C180774BB3F840319A0700F101
S214004830B080744BB3F840315B0700F19F80714B3A
S214004840B3F84031180700F18E806E4BB3F8403154
S214004850D9067CD46B4BB3F84001C0F38010002817
S21400486069D1684BB3F840311A0658D4654BB3F893
S2140048704031DB0547D4634BB3F84031980536D456
S214004880604BB3F84031590524D45E4BB3F8403141
S2140048901A0512D45B4BB3F84031DB0400D408BDD4
S2140048A0594BDB6A002B40F0AA80564AB2F83031EA
S2140048B043F48053A2F8303108BD534B9B6A002B5B
S2140048C040F09A804F4AB2F8303143F40063A2F8C1
S2140048D03031DFE74C4B5B6A002B40F08A80494A58
S2140048E0B2F8303143F48063A2F83031CDE7464B5E
S2140048F01B6A002B7AD1434AB2F8303143F4007376
S214004900A2F83031BCE7404BDB69002B6BD13D4A47
S214004910B2F8303143F48073A2F83031ABE73A4B4B
S2140049201B68002B5CD1374AB2F8303143F0800365
S214004930A2F830319AE7344B5B68002B4ED1314AEF
S214004940B2F8303143F04003A2F8303189E72E4BFD
S2140049509B69002B3FD12B4AB2F8303143F010034D
S214004960A2F8303176E7284B5B698BBB254AB2F854
S214004970303143F00803A2F8303166E7224B1B695A
S2140049801BBB204AB2F8303143F00403A2F83031A2
S21400499055E71D4B9B68ABB91A4AB2F8303143F065
S2140049A00203A2F8303144E7174BDB683BB9154ADF
S2140049B0B2F8303143F00103A2F8303133E7032078
S2140049C09847F4E702209847E6E704209847D8E798
S2140049D005209847CAE706209847BCE79847AEE701
S2140049E0002098479FE70720984790E708209847B9
S2140049F081E70920984772E70A20984762E70B206C
S214004A00984752E700600040C002FE1F0278452A21
S214004A102BD8294B9B5CFF2B25D0F0B403F0200647
S214004A204788407806F0FF0403F01F05FEB1012416
S214004A302B2A04FA05F634D0332A01D1012836D0C1
S214004A409B091E4A52F8233041BBEFF31082012126
S214004A5081F31088196821EA0601196082F310882C
S214004A600020F0BC70470320704701207047134EAB
S214004A7038449B092D1A012256F8233002FA05F60F
S214004A800029E2D0EFF3108082F3108819683143D2
S214004A90196080F310882046F0BC70470320F0BCF5
S214004AA07047072FCCD9013504FA05F6C8E76A1C0B
S214004AB000FA02F6C4E700BFBC970200AC970200FB
S214004AC00121FFF7A3BF00BF0021FFF79FBF00BF74
S214004AD0A0F101000028FBD1704700BF2DE9D043AC
S214004AE001FB00F4FFF7C0FD4FF47A71A4FB0189C7
S214004AF000274FF0FF364F4508BF46450C4BB3FB2B
S214004B00F0F005D3B8FBF0F0800860B9BDE8D083BC
S214004B108000B4FBF0F0A0FB01018F4208BF864284
S214004B20F3D24FF0FF30BDE8D043FFF7D1BF00BF50
S214004B3000CA9A3B002808DB800000F1804000F5A0
S214004B40C640036823F48033036070470B4A0C4B5F
S214004B5010B49B1A0B4CDB08236063B10A48002193
S214004B609388C3F3090340F8043F236801318B425E
S214004B7002F10802F4D85DF8044B70470005000007
S214004B8010050000F002FE1FFC620040012202E059
S214004B90C0E8432F43B1D0E84F3F13F0FF0FF7D0E4
S214004BA0BFF32F8F08207047184670470023037006
S214004BB0704700BF164B10B41C687CB1154B0068DC
S214004BC01A681368984218BF002304D10AE052F806
S214004BD0041F814207D00133A342F8D103205DF8B9
S214004BE0044B704700230C4A12680121134403E06B
S214004BF0C3E8401F0028F2D0D3E84F2F12F0FF0F73
S214004C00F6D0BFF32F8F08205DF8044B704700BF27
S214004C10F402FE1FF802FE1FFC02FE1F0F4B10B42C
S214004C201C687CB10E4B00681A681368984218BF5F
S214004C30002304D109E052F8041F814206D0013354
S214004C40A342F8D15DF8044B70470023054A12686A
S214004C500021D1545DF8044B704700BFF402FE1FDC
S214004C60F802FE1FFC02FE1F38B50A4C0A4D0B4820
S214004C700B490C4B0C4A04602D1BAD080D601A60E6
S214004C803DB104EB850520460434FFF7C7FFAC4270
S214004C90F9D138BD10050000C0060000F802FE1F5E
S214004CA0F402FE1FFC02FE1FE401FE1FEFF310815C
S214004CB0012383F31088124B33F8102092B22AB1E6
S214004CC033F81020013A92B223F8102033F810304F
S214004CD09BB293B910B40B4A0B4CB2F8FE3334F8BF
S214004CE010009BB243F4254323EA0003A2F8FE33E8
S214004CF081F310885DF8044B704781F31088704785
S214004D000003FE1F00E001400898020030B4EFF3F5
S214004D101084012383F310880D4A32F810309BB2BA
S214004D205BB90C4D0C49B5F8FE3331F810109BB248
S214004D3043F425430B43A5F8FE3332F81030013315
S214004D409BB222F8103084F3108830BC704700BF46
S214004D500003FE1F00E0014008980200024B0022FC
S214004D601A805A809A8070470003FE1F00BE704764
S214004D7008B500F005F800F05DF9FEE7704700BFE3
S214004D80284A38B5D2F8883043F47003C2F8883021
S214004D900020FFF7F3FFFFF72BFD234B1B68984718
S214004DA0FFF7DCFFFFF718FC204A214B21481B6861
S214004DB0002414809847204A204B9B1A05D01344A1
S214004DC0214603F8011D9A42FBD11D481D4BC01A0F
S214004DD007D01D4A184412F8011B03F8011B834232
S214004DE0F9D1FFF741FC194C194B1A4D18602D1BD1
S214004DF00120FFF7C3FF032DC8BF2D1904DD54F8AB
S214004E00043B9847AC42FAD1FFF72EFFFFF79EFE11
S214004E10114B12481B6898470020BDE8384000F048
S214004E201FB800BF00ED00E038920200A402FE1F8B
S214004E30409102000C9902008802FE1FB00BFE1F74
S214004E405002FE1FC001FE1F34A30200D801FE1F41
S214004E500803FE1FDC01FE1F549202001098020099
S214004E6000F044B882B04FF0C84300210091009A89
S214004E701A7D61F300021A751A8DD0B1202161F3F4
S214004E800F221A851A8D4FF0C04142F080021A8513
S214004E900A68009240F6FF721946019204E0019BF0
S214004EA0013B0193019A12B18A6A5206F7D502B005
S214004EB070474FF0C04142F47F421A850A6800925C
S214004EC01A8D60F3C7121A850A68009240F6FF71C1
S214004ED01A46019105E0019B013B0193019B002BC3
S214004EE0E5D0936A5B06F6D402B07047F8B54D4934
S214004EF00A684FF0C844002322F0400210200A60DF
S214004F002063A36123626363C4F80438227A63F3E0
S214004F1004022272237DFF2243F0010323752261DF
S214004F20237D662243F0010323752261237D9922A7
S214004F3043F0010323752261237D43F001032375AB
S214004F4001212320FFF7CAFD9F232361364B2269E8
S214004F501A7022695A702169227D997042F0010206
S214004F6022751A78EF2A04D000221A705A709A70A6
S214004F70F8BD5A78402AF7D19A78172AF4D1052036
S214004F8020612A4923690B70227D294B42F00102D9
S214004F9035262275266122691A70227D42F00102AA
S214004FA02275228D042565F3030222852279502777
S214004FB065F3030222712761227D42F00102227509
S214004FC01A78012742F002021A7027610A782261D5
S214004FD01A782261227D3A4322752561227D3A4362
S214004FE02275228860F302022280206122690A70FC
S214004FF0227D3A432275266122691A70237D3B433F
S2140050002375238843F040032380A369DB074FF012
S214005010C845FAD40120FFF725FF2B7D6FF3000368
S2140050202B75F8BD007004400C03FE1F1003FE1F16
S2140050301403FE1F08B500F0C5F8002008BD00BF29
S2140050402DE980484F4B504C1A68D3F808B0596881
S21400505085B010460192DBF800209047206000B132
S21400506000BE4A4B9D681E682A68596830469047BD
S214005070206000B100BE464B9A68186812685968EE
S2140050809047206000B100BE424B9F68D3F8008076
S2140050903A68596840469047206000B100BE3E4BD3
S2140050A00293D3F80CA0D3F800905968DAF80020E1
S2140050B048469047029B206000B100BE9968DAF827
S2140050C0043048469847206000B100BE334BDFF8F6
S2140050D0DCE059689A6808681268C0F808E0DFF8EB
S2140050E0D0E0C0F804E018689047206000B100BE29
S2140050F02B4B19689A680292084603911268596801
S2140051009047206000B100BE264B5B6808209B6875
S214005110C0219847206000B100BEDAF80830484643
S2140051209847206000B100BEDBF808300198984729
S214005130206000B100BE029B03989B6898472060E1
S21400514000B100BEDFF86CB0DFF85C904FF0000AEC
S2140051509BF80030002BFBD07B68134940460122A9
S2140051609847206000B100BED9F80010AB68090D62
S214005170C9F8001030469847206000B100BE8BF892
S21400518000A0E5E7D4980200E403FE1FEC980200B6
S214005190309802001C9802003C980200FC9802001E
S2140051A0E098020028980200E003FE1FE803FE1FB6
S2140051B020C005405403FE1F014B01221A707047A1
S2140051C05403FE1FFFF73CBFB0FA80F0400970475B
S2140051D020B1034B1B680360002070470120704716
S2140051E0A49C020088B181B110B54B68044600212A
S2140051F040F81C3B102223F05EFF04F10C00002157
S214005200102223F058FF002010BD0120704700BF79
S21400521003682DE9F04143B3074600F11C0500245E
S21400522000F10C0807E0284623F02AFF70B93B6817
S2140052300134A34219D9284600F04EF841460646E6
S21400524010220028EFD03046BDE8F081AB68296810
S2140052506A68E868C8F80C00C8F80010C8F80420A7
S214005260C8F808303B689C42EDD3024E3046BDE895
S214005270F08100BF0C00010000B3F9B1F2B1F8B53F
S2140052809600102E07460C4698BF00F11C050DD858
S21400529016E055F81C1F102E6A68AB68E868E060D8
S2140052A021606260A36004F1100409D93846FFF754
S2140052B0AFFF3D46103E0028EBD0F8BD01207047FA
S2140052C03846FFF7A5FF294607463246204623F014
S2140052D0E7FE3846F8BD00BF38B5264CD4F8BC31DA
S2140052E013F01F0302D04FF0011038BD40F2013119
S2140052F04FF00112C4F884100546C4F808311E4861
S214005300C4F8C0211D4B1E491E4A00F0C3F81E4BB0
S214005310C4F8C430D4F80431164A002BFADA002157
S21400532040F21323C2F80011114653604B68114C2B
S2140053305B00FBD5D4F800312B60D4F800316B60ED
S214005340D4F80031AB60D4F80031EB604FF4803312
S214005350C4F8C0310D480E4B0E490F4A00F0B8F89D
S2140053604023C4F8BC31A069C0F300300028FAD14D
S21400537038BD00BF00000C4033F1DA3D3927DC3D74
S214005380210ADC88140B70FAFC1F00419322DE12FF
S2140053902D87B7C73C7920C159B9CF1818B100235B
S2140053A00360184670470120704700BF20B1034BCA
S2140053B01B6803600020704701207047BC9C0200F9
S2140053C028B108B50348FFF7F1FB002008BD01200F
S2140053D0704700BF5803FE1F68B161B138B5174A61
S2140053E01748536823F0004353600C46FFF7CEFB84
S2140053F018B1144838BD0120704700F025F800F0B9
S2140054007FF8054620B10E48FFF7D0FB284638BD8A
S21400541000F026F905460028F5D100F0CBFA05463F
S2140054200028F0D1237A012B03D000F019F8284683
S21400543038BD00F01DF8284638BD00BF0070044097
S2140054405803FE1F06000100044B0022C3F8382153
S214005450C3F8D021C3F8D021704700BF00000C402D
S214005460024B40F60E62C3F8D421704700000C4091
S214005470024B4EF6EE62C3F8D421704700000C4093
S214005480034BD3F8D401003018BF0120704700BF8B
S21400549000000C4070B40C4E0C4CC6F8C440D6F855
S2140054A00441094D002CFADAC5F80001C5F80011D0
S2140054B02846C5F80021C5F80031D0F8C830DB030F
S2140054C0FBD470BC704700BF00000C408D3A0F0044
S2140054D070B4094E094CC6F8C440D6F80441064DCF
S2140054E0002CFADAC5F80001C5F80011C5F800214D
S2140054F0C5F8003170BC704700000C408D3A0D00B6
S214005500F8B53F4C00F084FA3E4BC4F83831002121
S21400551040F27B530122C4F8F0106260C4F80C31EC
S214005520D4F8BC3113F01F0502D04FF00110F8BDBF
S2140055304FF0080C344BC4F880204FF4706E40F2E5
S214005540523648F20107A2623048E2673049C4F892
S21400555064C0304AC4F88430C4F83CE12E4BC4F82A
S2140055608870C4F8046103F011FD2C4BC4F8885011
S2140055702246C4F80461C4F8C430D2F80431204C82
S214005580002BFADA264B27482749284AC4F8000198
S214005590C4F80011C4F80021C4F8003103F14343F5
S2140055A003F5202322482349234A1B3303F0EEFC4D
S2140055B0224A234B23482449FFF76CFF002341F27D
S2140055C001026260C4F8D031A3699B0404D420238E
S2140055D0C4F8BC311D48F8BD40F20123C4F83C3184
S2140055E01B481C4B1C491D4AFFF772FF4023C4F89A
S2140055F0BC31A069C0F300300028FAD1F8BD00BF66
S21400560000000C406A8097F5010101002EC1A84AEF
S21400561087B1A0E1DE0B279B45576B050D3A0F00BF
S2140056205DEF61A886B91FF7E989D109266BE361AA
S214005630AD069358AFD6E2DD671C14BCF7175A8B3D
S2140056409BC19AC4CE11A40A0D34358A020001000B
S2140056504CBE1E514D6A938207538D7D5E72EC34AC
S214005660A04AF8B5D2F8BC3113F01F0302D04FF0B1
S2140056700110F8BD40F2012152249B48C2F8841064
S214005680C2F808311146C2F80441C2F8C400D1F885
S2140056900431944A002BFADA9449C2F80011944B6C
S2140056A05221C2F804111146C2F8C430D1F80431B0
S2140056B08C4C002BFADA00258E4ADFF8F4E2C4F8A8
S2140056C00051032340F6AD178026C4F8EC208A4824
S2140056D0C4F8D051894AC4F8EC308949C4F8D0518E
S2140056E0884BC4F8ECE0C4F8D051C4F8EC70C4F8A9
S2140056F0D051C4F8EC60C4F8D051FFF7CBFE4FF49D
S214005700C00347F60D42C4F8EC20C4F8D051E3615C
S214005710C4F8D051E36913F07F4F00F09F80E3692F
S21400572003F07F43B3F1807F00F0CD80E36903F0A0
S2140057307F43B3F1007F00F0B28000F015FC694CA7
S214005740714A724B72487349FFF7A4FE00234FF468
S2140057508002E261C4F8D031E3695E0200F18D8018
S2140057601C2363666C496D4A6D4B6E48FFF792FECC
S21400577052226D4BC4F804212146C4F8C430D1F837
S2140057800431584A002BFADA0021684BC2F800119F
S2140057901146C2F8C430D1F80431524C002BFADA64
S2140057A0634BC4F800316348634B6449644AFFF7AF
S2140057B071FE644BC4F8C4302346D3F80421494C28
S2140057C0002AFADA0023C4F800315F485F4B6049CC
S2140057D0604AFFF75FFE604BC4F8C430D4F804316B
S2140057E0404A002BFADA0023C2F800315B49C2F8BF
S2140057F0C41042F21323114613600B68394A98010D
S214005800FBD44FF4C05140F21323D16111465360CC
S2140058104B68344C5B00FBD5514DD4F800C1D4F82E
S21400582000E1D4F80071D4F80061C5F840C040F239
S214005830022CC4F83CC14B4B4B484C494C4AC5F86B
S21400584044E0AF64EE64FFF743FE4023C4F8BC3187
S214005850A069C0F300300028FAD1F8BD082142F252
S214005860080249F21C036166424862664249636662
S214005870424A434B03F08AFB5FE702F1EA4202F535
S2140058809212404B40484149E732FFF721FE402341
S214005890C4F8BC31A369DD04FCD43D48F8BD08213A
S2140058A042F208026166626602F18A4249F21D030C
S2140058B0A2F55012636637483749384BA2F69972FC
S2140058C003F064FB39E7082142F2080249F21E039E
S2140058D061663348626633496366334A334B03F086
S2140058E055FB2AE700000C408C3B090056BAC72639
S2140058F004080700A0A90030A41D455F8674D09D4B
S21400590048864B65A206296D003D7A4D7B9B98C262
S214005910BD719EC707503C95B82EA4E993245EF54A
S214005920E61FEA2FF6C92F45C40C09010C3B0700F9
S2140059307BB9ECBE4ED92572092F3BFAC47540E2FE
S2140059406D1B48807C1F0D41C8B41547BD678FF19D
S214005950014CFBD6BBFFF08FFC1F004185080500FD
S214005960F003FE1F98FCB88EC25493E69000E380C6
S2140059702437F1D26BF77FF5F4F7E4351228167E5C
S21400598024AE0C6F9A5A660404156052F59A176294
S21400599004000100F2DE37ACCD42A04ABABA066B6C
S2140059A0F335C06D5403933836C3031EEB236626C7
S2140059B02000010010B5114CD4F8BC3113F01F03C1
S2140059C002D04FF0011010BD49F6011140F203223B
S2140059D0C4F884100A48C4F808310A49C4F83C21BF
S2140059E0094B0A4AFFF774FD4023C4F8BC31D4F8CB
S2140059F0C800C0F340400028F9D110BD00000C409C
S214005A0077EDA08702C87D7D02EF4298AB82236CBB
S214005A102DE9F041AF4BB04AC3F838218EB00022D2
S214005A200821AE4FAE4CAF4859664FF0011E7B269C
S214005A3007255A66C3F80CE15F61C3F8D0215966A2
S214005A405E669D661C615861C3F8D021C3F8D021FC
S214005A500092009BB3F5806F06D2009B0133009343
S214005A60009BB3F5806FF8D39A4B9B4AC3F8382156
S214005A709A4E9D4900224FF0011708257B2443F6D5
S214005A800700C3F8F020C3F80C715E61C3F8D0219C
S214005A905D665C6698665961C3F8D021C3F8D0216C
S214005AA00192019BB3F5805F06D2019B01330193FF
S214005AB0019BB3F5805FF8D3864B874AC3F838213D
S214005AC08A488B4900224FF00117012608254FF41B
S214005AD08374C3F8F020C3F80C71DE675D679C67BB
S214005AE058615961C3F8D021C3F8D0210292029BB5
S214005AF0B3F5806F06D2029B01330293029BB3F587
S214005B00806FF8D3734B744AC3F838214FF00116F0
S214005B100022012548F28B1441F2050041F21501DE
S214005B20C3F8F020C3F80C61C3F88020C3F8805097
S214005B30C3F88C4058615961C3F8D021C3F8D0210E
S214005B400392039B3F2B05D8039B01330393039BD0
S214005B503F2BF9D95F4B604AC3F838210021654CCA
S214005B606548C3F8F0104FF00116012548F2800290
S214005B70C3F80C6119469D629C62D8645A624A6AF0
S214005B80544BD402FBD44FF481425A621A46516AEF
S214005B90504BC802FBD44CF280025A621A46516A35
S214005BA04C4BC902FBD45022DA621A6849491202E9
S214005BB0FBD54FF0FF330B62504CCC63002341F211
S214005BC0050041F2150248614A61C1F8D031C1F8BA
S214005BD0D0310493049B3F2B05D8049B01330493D8
S214005BE0049B3F2BF9D93B4B3B4AC3F83821444D25
S214005BF0444C4548454900224FF001170126C3F89A
S214005C00F020C3F80C719E629D62DC635861596196
S214005C10C3F8D021C3F8D0210592059B3F2B05D8A9
S214005C20059B01330593059B3F2BF9D9294B2A4A3F
S214005C30C3F83821364D374C3748384900224FF0E4
