S01200004C41425F52544F535F312E737265630C
S214000000183500203D980000A592000039980000A1
S2140000103998000039980000399800000000000068
S21400002000000000000000000000000039980000FA
S2140000303998000000000000D1BD000085BE000019
S214000040A58F00009551000025070000FFFFFFFF69
S214000050FFFFFFFFFFFFFFFFFFFFFFFFFFFFFFFFAB
S214000060FFFFFFFFFFFFFFFFFFFFFFFFFFFFFFFF9B
S214000070FFFFFFFFFFFFFFFFFFFFFFFFFFFFFFFF8B
S214000080FFFFFFFFFFFFFFFFFFFFFFFFFFFFFFFF7B
S214000400FFFFFFFFFFFDFFFFFFFFFFFFFFFFFFFFF9
S214000410FFFFFFFFFFFFFFFFFFFFFFFFFFFFFFFFE7
S214000420FFFFFFFFFFFFFFFFFFFFFFFFFFFFFFFFD7
S214000430FFFFFFFFFFFFFFFFFFFFFFFFFFFFFFFFC7
S214000440FFFFFFFFFFFFFFFFFFFFFFFFFFFFFFFFB7
S214000450FFFFFFFFFFFFFFFFFFFFFFFFFFFFFFFFA7
S214000460FFFFFFFFFFFFFFFFFFFFFFFFFFFFFFFF97
S214000470FFFFFFFFFFFFFFFFFFFFFFFFFFFFFFFF87
S214000480FFFFFFFFFFFFFFFFFFFFFFFFFFFFFFFF77
S214000490FFFFFFFFFFFFFFFFFFFFFFFFFFFFFFFF67
S2140004A0FFFFFFFFFFFFFFFFFFFFFFFFFFFFFFFF57
S2140004B0FFFFFFFFFFFFFFFFFFFFFFFFFFFFFFFF47
S2140004C0FFFFFFFFFFFFFFFFFFFFFFFFFFFFFFFF37
S2140004D0FFFFFFFFFFFFFFFFFFFFFFFFFFFFFFFF27
S2140004E0FFFFFFFFFFFFFFFFFFFFFFFFFFFFFFFF17
S2140004F0FFFFFFFFFFFFFFFFFFFFFFFFFFFFFFFF07
S214000500DC04FE1F4B0020202C05FF1F4A0028207D
S2140005102005FF1F7301334120000000200001006A
S2140005202F0000002F0001000C0001001100000049
S214000530300000003000010024000000240001000C
S2140005402400020024000300240004002400050008
S2140005501300000017000000230000002100000028
S214000560210001000700000007000100070002004C
S2140005700700030007000400070005000700060048
S21400058007000700120000004400000008000000FA
S2140005900B00000041000000400000004000010089
S2140005A004000000430000002B0000002B000A009F
S2140005B02B000B002B000C002B000D002B00010065
S2140005C02B0002002B0003002B0004002B0005006C
S2140005D02B0006002B0007002B0008002B0009004C
S2140005E00600000006000A0006000B0006000C00CD
S2140005F006000D0006000E0006000F0006000100B3
S21400060006000200060003000600040006000500BF
S214000610060006000600070006000800060009009F
S2140006201500000015000100150002003100000052
S2140006302A00000045000000100000000301000032
S21400064003000000030001000F0000000D00000082
S2140006502D000000420000002C0000002C000100CD
S2140006602C0002002C0003003200000028000000CE
S214000670180000001400000014000100140002001E
S2140006801400030014000400140005001400060003
S21400069014000700140008001400090034000000CD
S2140006A034000100160000001600010035000000AE
S2140006B03600000036000100220000003300000073
S2140006C0330100002900000010B5054C237833B92B
S2140006D0044B13B10448AFF300800123237010BD10
S2140006E04804FE1F00000000CCA80300084B10B50D
S2140006F01BB108480849AFF300800848036803B9EF
S21400070010BD074B002BFBD0BDE81040184700BFBC
S21400071000000000CCA803004C04FE1FA003FE1F30
S2140007200000000010B501200AF0CEFA134B1B683B
S2140007305C698CB11B691249D3F894208A4218BFB1
S214000740002004D115E0D3F894208A4212D001305C
S214000750A04203F1AC03F6D100F040FDEFF30380B6
S214000760103840B208F02CFF0120BDE810400AF017
S214000770A9BA002002F0F4FDF0E700BF041500203F
S21400078000000640F8B50F4630210446154600F036
S2140007908DFE30214FF4C0620646204600F07EFEF5
S2140007A020463A2100F082FE012DBB680FD00122C0
S2140007B09A4020EA0202204692B23A2100F080FED9
S2140007C02046B2B23021BDE8F84000F079BE9D4028
S2140007D040EA0502EFE700BF38B505460C4600F0D4
S2140007E0B7F9831E032B03D8DFE803F0150E0E0DB2
S2140007F028462146002200F015F828462146002209
S214000800FFF7C0FFFF2038BD28462146002200F033
S21400081009F8002038BD28462146012200F002F8DB
S214000820002038BDF8B50F4630210446154600F0C6
S2140008303DFE30214FF4E0620646204600F02EFED4
S2140008402046362100F032FE012DBB680FD0012273
S2140008509A4020EA0202204692B2362100F030FE8C
S2140008602046B2B23021BDE8F84000F029BE9D40D7
S21400087040EA0502EFE700BFE9B138B5CB68012BC7
S2140008800C4605460DD9022B17D0284621460022D5
S214000890FFF7C8FF284621460022FFF773FFFF2018
S2140008A038BD00F0DBFB831E032BEED8DFE803F039
S2140008B01408080238BDFF20704700F0E5FAF2E79A
S2140008C0284621460022FFF7ADFF28462146012292
S2140008D0FFF758FF002038BD284621460122FFF7C3
S2140008E0A1FF002038BD00BFCB68012B70B50C46B9
S2140008F005462FD01ED3022B0BD0042400212846F9
S21400090000F0D4FD2846042100F0D0FD013CF5D1CE
S21400091070BD2021164600F0C9FDA26820F4426092
S21400092020F00F003243024392B22846202100F006
S214000930C7FDE2E7282100F0B9FDA36820F4406077
S21400094020F00F0040EA030292B22846282100F069
S214000950B7FDD2E72C2100F0A9FDA36820F4406083
S21400096020F00F0040EA030292B228462C2100F045
S214000970A7FDC2E738B58B680C463BB95C2100F092
S21400098095FDC30510D54FF4807038BD054664212B
S2140009900F2200F083FD28466421228900F090FD96
S2140009A028465C2100F082FDA36AD86938BD00BFE6
S2140009B0896821B137314900032200F06FBD6021FC
S2140009C0032200F06BBD00BF38B50C460546FFF7A6
S2140009D08BFFE368012B0FD009D3022B05D12846E5
S2140009E0222100F063FD830400D4FF2038BD284692
S2140009F02A2100F05BFDF6E728462E2100F056FD82
S214000A00F1E700BF4368CBB110B4027B042A83B081
S214000A1015D00A88002B92B201920CDD036801A95A
S214000A20002211F8014B1C7090E8180001320133C7
S214000A3094420360F5DC03B05DF8044B70470A6827
S214000A400192002BF7DD036801A9002211F8014B83
S214000A501C7090E8180001320133A2420360F5DBF7
S214000A6003B05DF8044BE9E7F0B40C68E4070B4606
S214000A7010D501241C73D0F808525C68EE789C6090
S214000A806FF30516A4B21146EE70EC810022F0BC9E
S214000A9000F010BD02241C73D0F808525C68EE7893
S214000AA00121CC4061F30516A7B29C601146EE709A
S214000AB0EF814FF48062F0BC00F0FCBCF8B5154640
S214000AC00A68D2070C46064628D44A685708A2EB9E
S214000AD047024FF0020E19466260A7604FF480622C
S214000AE084F80CE000F0E6FCD6F8E021174BA66888
S214000AF09A4208BF02355EB120683346024629880E
S214000B0022F8021B013BFAD100EB46002060A360EE
S214000B1020462946BDE8F840FFF774BF1946002274
S214000B2000F0C8FC094BD6F8E0219A42636808BF7B
S214000B30033553B123682A781A7023686268013334
S214000B40013A23606260002AF5D1F8BD0000064035
S214000B502DE9F043CB68D0F8E071012B87B00D4645
S214000B6006464BD044D34FF0220814374FF02009E6
S214000B70304629460022FFF727FFFF2802D107B09C
S214000B80BDE8F083AA6AC0F30B03D469AB613046B4
S214000B9029460393FFF70CFF2B69039A934233D33E
S214000BA0002A36D0B2FBF4F304FB1324002C1346C1
S214000BB014BF04240224D6F8F011EA69029211B197
S214000BC0E968012927D95B49D6F8E001884234D084
S214000BD03A464B46304602A9FFF770FF304641467C
S214000BE04FF4804200F06CFC204607B0BDE8F0836E
S214000BF04FF02A0818374FF02809B9E74FF02E08AB
S214000C001C374FF02C09B3E703930724002BD2D1EF
S214000C10E4E70424E2E74749D6F8E001884271D0C9
S214000C2002AD4A4629463046FFF71EFF049B43BBEB
S214000C3028463946FFF7E6FED0E79207C8D19D085A
S214000C40A3EB85034FF0040E494630464FF400628E
S214000C50049503938DF814E000F02CFC049D5DB120
S214000C6002982B460246396842F8041B013BFAD12B
S214000C7000EB850002900493394602A8FFF7C2FEF7
S214000C80ACE72C4BD6F8E011029AD6F808E2994267
S214000C902DD039469EF80330D6F8F001BEF80EE0A7
S214000CA0D0F808C00068C3F301134FF001098DE8BF
S214000CB008021FFA8EF3DCF824C0E047D6F8F031BD
S214000CC09A68186813690021984702A90EC99DF80A
S214000CD0140003FB00F31944D31A0291039396F809
S214000CE01D32002BFBD0002386F81D32A0E79EF8AD
S214000CF0033003F03003202BCBD0102B0CBFB91CD5
S214000D00F91CC7E791078BD1D6F8082204218DF885
S214000D101410D0789B0802219DB261F30510D5818E
S214000D2004934946D07030464FF4006200F0C2FB90
S214000D3002AD7BE700000640F8B515460A68D20704
S214000D400C46064633D44A685708A2EB47024FF0D3
S214000D50020E19466260A76084F80CE04FF48062C9
S214000D6000F0A8FBD6F8E071204BA6689F4237D06B
S214000D7076B120683346024632F8021B2980013BD2
S214000D80FAD11A4AA36000EB4600974220602AD0A8
S214000D90636823B323681B7805F801392368626803
S214000DA00133013A23606260002AF4D1F8BD194687
S214000DB0002200F07FFB0D4BD6F8E0219A426368D4
S214000DC008BF03355BB123681B782B702368626805
S214000DD00133013A23606260002AF5D1F8BDF8BD00
S214000DE00235002EC5D10335D2E700BF000006400D
S214000DF02DE9F041234F1546D0F8E021BA420646C9
S214000E000C4606D0304621462A46BDE8F041FFF79C
S214000E1093BF0A689207F5D14A689708A2EB870243
S214000E204FF0040E6260A760194684F80CE04FF499
S214000E30006200F03FFBA7685FB120683B460246B1
S214000E4052F8041B2960013BFAD100EB87002060B2
S214000E50A360D6F8E0210B4B9A4211D063686BB1C1
S214000E6023681B7805F80139236862680133013A64
S214000E7023606260002AF4D1BDE8F081BDE8F0810D
S214000E800335EBE70000064070B58B6884B00D466E
S214000E90064633B92022FFF797FDFF2806D104B097
S214000EA070BD0022FFF790FDFF28F8D03046294697
S214000EB0FFF760FDAA6A2B69D2699A4204461ED3E0
S214000EC0019363B3B3FBF2F102FB1132002A14BFA5
S214000ED00424032404A9EA6941F8102DD6F8E02179
S214000EE06B61143220233046FFF782FF3046222102
S214000EF000F0DCFA030414D5204604B070BDD6F822
S214000F00E021EB69686104A9304641F8103D1432CF
S214000F1020230194FFF76CFF022004B070BD042468
S214000F20D8E7304622214FF4004200F0C9FA2046A6
S214000F30B5E700BF094B9A42436808BF03315BB16F
S214000F4003681B7801F80139036842680133013AE7
S214000F5003604260002AF4D1704700BF00000640DC
S214000F60F0B40C68E4070B4610D501241C73D0F8C7
S214000F70F4515C68EE789C606FF30516A4B21146D7
S214000F80EE70EC810022F0BC00F094BA02241C73D0
S214000F90D0F8F4515C68EE780121CC4061F3051678
S214000FA0A7B29C601146EE70EF814FF48062F0BCF1
S214000FB000F080BAF0B4114DD0F8E061AE420346BE
S214000FC00C4604D021461846F0BCFFF7C9BF096896
S214000FD08907F7D104212173D0F8F4516368EE78BD
S214000FE00221CB4061F305169FB2A3601146EE7056
S214000FF0EF814FF40062F0BC00F05CBA00000640DF
S214001000F0B5154B0446D0F8E001984283B0D4F80A
S214001010F43117D0DD78D4F8EC01DB8986680068F7
S214001020C5F3011501278DE8A0009BB2756AA84795
S214001030D4F8EC319A6818681369002103B0BDE84B
S214001040F0401847D87800F030002028E2D010286A
S2140010500CBF02320332DDE7000006402DE9F04304
S214001060002285B005460E46FFF7AEFCFF2802D1EB
S21400107005B0BDE8F08328463146FFF77BFCB36A2F
S2140010803769DB69BB422CD2019007460224F3681D
S214001090D5F8E021002B37D1282302F118084FF0AD
S2140010A02A09D5F8EC21F16977610091002A4AD027
S2140010B01A4669462846FFF77DFF029B63BB6846D3
S2140010C04146D5F8E021FFF735FF022C05D028462B
S2140010D0494600F0EBF903040ED5204605B0BDE8FE
S2140010E0F0830197B7B1B7FBF3F203FB1273002B43
S2140010F014BF04240324CAE7284649464FF4004296
S21400110000F0D8F92046B3E72C2302F11C084FF074
S2140011102E09C6E70424BAE7284600994246FFF798
S2140011206FFF9DE807009DF80C3002FB03F31844A0
S214001130CB1A8DE8090095F81C32002BFBD0002353
S21400114085F81C32BBE7424628466946FFF750FE44
S214001150BBE700BF70B51F4D1F492C68D4F8943309
S214001160012B07BFD4F82003D4F82433D4F828037F
S214001170D4F82C33C4F81803C4F81C330E2204F534
S214001180067333F045FF4FF47A72D4F83032D4F851
S2140011908C12C4F8C82204F1D00604F51472C4F800
S2140011A09012C4F88822C4F86C32C4F894320E2127
S2140011B0D4F80831304698472B68D3F8B43300216A
S2140011C00222C4F85412C4F8A4220BB10120984796
S2140011D0002070BD001500201C03FE1F2DE9F84FEF
S2140011E0DFF8B482D8F80090D9F80C4140212046A8
S2140011F000F05CF9430407460CD5D8F80030D3F865
S214001200B4330BB105209847204640214BF6FF72B9
S21400121000F056F93E0400F1BF80FD0400F1A980FD
S214001220780576D4F90545D4BA0514D43B0501D41F
S214001230BDE8F88FE16A07F00703303120464FF427
S214001240006200F041F9204640214FF2FF72BDE8EF
S214001250F84F00F035B94821204600F027F938212C
S2140012608146204600F022F904F5DE76824604F533
S214001270F27801254FF02C0B04E0043646454FEA81
S2140012804505D3D015EA090FF7D015EA0A0FF4D0B2
S214001290EA43204692B2482100F012F933680BFB6D
S2140012A003432046D96A4FF400723031002300F021
S2140012B00BF9E2E74621204600F0F8F83621814691
S2140012C0204600F0F3F804F5DE76824604F5F27860
S2140012D001254FF02C0B04E0043646454FEA450541
S2140012E0A2D015EA090FF7D015EA0A0FF4D0EA43A0
S2140012F0204692B2462100F0E3F833680BFB034326
S2140013002046D96A4FF480723031002300F0DCF8B2
S214001310E2E74A21204600F0C9F83A2181462046F5
S21400132000F0C4F804F5DE76824604F5F27801256E
S2140013304FF02C0B05E0043646454FEA45053FF4D2
S21400134071AF15EA090FF6D015EA0A0FF3D0EA4393
S214001350204692B24A2100F0B3F833680BFB0343F1
S2140013602046D96A4FF480623031002300F0ACF892
S214001370E1E7204640214EF6FF7200F0A1F807F0A4
S2140013807003102B4DD03AD9202B61D0302B39D199
S2140013900323C4F8E83143E72046402147F6FF72AE
S2140013A000F08EF84021204600F080F8402100F042
S2140013B08006204600F07AF805464021204605F0D3
S2140013C0800500F073F8AE42ECD100F08000864253
S2140013D0E8D1304BD9F800213EB19A4245D020469C
S2140013E00021102200F066F817E79A4244D0204603
S2140013F00021102200F052F833F0C4FA0DE7002B5B
S2140014003FF40EAFD8F80030D3F8B4330BB1042055
S2140014109847D9F81432002B3FF402AF33F0B2FAF3
S214001420FEE62046082100F041F800F007000228FA
S21400143015D0032827D0012804D1D8F80030002280
S214001440C3F89423FFF786FE0123C9F81432E7E6B3
S2140014502046502100F02AF8C9F80401E0E6D8F842
S21400146000300122C3F89423ECE7204600214FF415
S214001470807200F01FF8B2E7314620464FF48072C3
S21400148000F00CF8B3E7D8F800300222C3F8942333
S214001490D8E700BF0000064000150020D0F8E001A5
S2140014A00B5A23EA02020A52704700BFD0F8E03116
S2140014B0C85A7047D0F8E0010B5A1A430A527047D0
S2140014C0D0F8E031CA5270472DE9F0478F68B2F580
S2140014D0006F0C46BD68064627D0B2F5807F05D063
S2140014E0B2F5806F02D00020BDE8F087636A022B59
S2140014F000F0CB80E269002A40F0A080E76C012F64
S21400150000F01681226230462946FFF73BF9AB68A9
S214001510002B40F021816A68012A00F04181A36A0D
S214001520002BE0D020469847DDE7062BDBD04FF6B1
S214001530F7724021FFF7C4FF54213046FFF7B6FF8D
S21400154081B204F1500033F00FFF56213046FFF70A
S214001550ADFF81B204F1520033F006FF5821304649
S214001560FFF7A4FF81B204F1540033F0FDFE5A21C8
S2140015703046FFF79BFF04F1560981B2484633F028
S214001580F3FE94F9503000274FF00108BB42A761E4
S2140015902762C4F80480C0F29080B4F85630002B5E
S2140015A000F08B804FF0020A4846C4F824A033F0BF
S2140015B0D5FEE36860612361304660210322A7619F
S2140015C0FFF76CFFAB6808FA03F292B230464A2186
S2140015D0FFF764FFAB6808FA03F292B23046462182
S2140015E0FFF75CFF304622214FF48042FFF768FF8A
S2140015F030462A214FF48042FFF762FF30462946E4
S2140016003A46FFF771F9304629464246FFF70AF98F
S214001610304642466021FFF74DFFC5F804A094F916
S2140016205030002BC0F29580B4F85630002B00F0F6
S2140016309A8002236B600020BDE8F087FB69216971
S214001640E961934228BF13466B61294630469846A7
S214001650FFF712F92F692169E369A269C8EB07074A
S2140016604144C8EB03034244FF282F612161E36134
S214001670A2613FF438AFA968002953D0373149003A
S21400168030460122FFF716FF2DE76369FA692B61E2
S2140016909342236988BF2A61EB6130462946FFF7EB
S2140016A09BF870B1AB68002B3FF41DAF2046232398
S2140016B040F82C3B33F050FE15E7204632F064FF2E
S2140016C0ADE7A969E269A3692069521AE261626915
S2140016D00B44084493422061A36102D0FB698B420D
S2140016E053D00022226230462946FFF79BF8AB68AB
S2140016F093BB6B68022B7FF4F6AE204632F044FFB5
S214001700A36A03226A600BB120469847002203238F
S214001710E26162616362304660216B600522FFF71A
S214001720C9FEE0E6304660210122FFF7C3FEDAE696
S2140017302A6130462946FFF79FF8FF2806D0A96899
S214001740E1B930463A466021FFF7B4FE0023E36471
S214001750C9E601236B60C6E62046022340F82C3B10
S21400176033F0FAFDBFE603226262E361636130464E
S2140017706A6060210522FFF79DFEB4E63731490016
S21400178030463A46FFF796FEE0E7AB68002BC9D036
S21400179003F13701490030460122FFF78BFEA2E62F
S2140017A003226262E361636130466A60602105225B
S2140017B0FFF780FEB3E600BF2DE9F047064600F1CE
S2140017C0D40400F1FC0500274FF0220854F8043F2B
S2140017D0002B37D0D807D4F828903DD4990742D4A8
S2140017E05A0747D4980631D4590609D5D9F80420A3
S2140017F023F0400391682360C9F80410D76123687A
S2140018001A061FD5D9F8042023F080032360D36975
S214001810D2F80CA01B0315D5D9F80010914206D0BB
S2140018209368D76199421A46FAD1C9F80410DAF8D3
S2140018302430CAF850800BB1504698470AF1280069
S21400184033F08AFDAC42C1D1BDE8F0873046494648
S21400185000F01AFA2368C7E74946304600F0AEF8AB
S21400186023689907BCD53046494600F09BF92368A3
S2140018705A07B7D53046494600F002F82368B1E764
S214001880F8B54A6A00EB8204D4F8D83023F0050392
S214001890C4F8D8304C68E3691E0300D4F8BD0D4682
S2140018A092B26421064602F011F92B6AE768002B13
S2140018B04ED0696A373149003046032202F0F6F806
S2140018C0696A37314900304602F0F6F800F0030046
S2140018D0023801284AD92B6A002B52D130462946B5
S2140018E0002200F053FA00233B65636AB3F1004F11
S2140018F052D062683B69396D13443B6159B9F96847
S2140019008B4208D03AB16B69D969B2FBF1F301FB9F
S2140019101322002A4DD0E16911F480212BD12A68C8
S214001920944208D0E3699B0323D5A3686B60E1610A
S2140019301C469442F6D16B689342AFD17B6A0BB1DA
S2140019403846984707F12800BDE8F84033F004BD54
S21400195030466021032202F0A9F83046602102F0EA
S214001960ABF800F0030002380128B4D821233B6509
S214001970BBE7A468D4E7A3686B6000212A68E1612E
S214001980DAE76B6A3733590001F48041304602F0DB
S21400199093F80028A7D1A1E7696A37313046490095
S2140019A002F08AF810F040001ABF0123AB61A8616C
S2140019B09FE7A3686B60E26170E700BF2DE9F8431C
S2140019C04A6A00EB8204D4F8D83023F00503C4F842
S2140019D0D8304C68E3691E0352D5D1F82080E668FB
S2140019E007460D46B8F1000F4CD092B2642102F0C3
S2140019F06DF8636AB3F1004F00F0BB80696A373157
S214001A0049003846032202F051F8236AB3F5006F06
S214001A1077D02946384600F00DFAD4F81880336996
S214001A20434433614FF480423846222102F048F89E
S214001A303269F3689A4209D0B8F1000F06D06B6994
S214001A40DA69B8FBF2F302FB1383B3B12A68944257
S214001A5018BF002105D0A368E16193421C46FAD165
S214001A606B60736A002232650BB13046984706F108
S214001A702800BDE8F84333F06FBCA2686A60E361F3
S214001A80BDE8F8836021032202F010F8E36913F43E
S214001A90803943D1990347D5236AB3F5006F75D0D3
S214001AA02946384600F0C6F9D4F81880336943440E
S214001AB0336122214FF48042384602F001F8316942
S214001AC0F268A3686B609142C4F81C90D8D0B8F155
S214001AD0000F07D06A69D169B8FBF1F201FB1282E8
S214001AE0002A5DD0296800208B4208D0DA6992036C
S214001AF03DD59A686A60D86113468B42F6D1BDE838
S214001B00F88361683369F2680B44934233611CD0F2
S214001B10A3686B600023E361BDE8F883A3686B608D
S214001B20C4F81C80BDE8F8835B03A9D5236AB3F527
S214001B30805F15D0A368726A6B600023E36133652B
S214001B40002A94D03046904791E7736A00223265A7
S214001B500BB13046984706F1280033F0FDFBD7E777
S214001B60384622214FF4804201F0AAFFE2E79B6844
S214001B70BAE7696A37314900384601F09DFF10F030
S214001B8040001ABF0123AB61A86137E7326963687A
S214001B90A16869601344C4F81C903361BDE8F883FB
S214001BA0BDE8F8832DE9F0414A6A00EB8204054659
S214001BB0D4F8D83023F00203C4F8D8304C68E36970
S214001BC01B033CD50B6AD4F80C8007460E4623B39D
S214001BD092B2642101F07AFF716A373149002846D3
S214001BE001F06AFF716A373105464900384603221C
S214001BF001F05CFF05F00303023B012B1BD9E36AEF
S214001C005A1C032BE2621CD8336A9BBB3846602101
S214001C100122BDE8F04101F053BF602101F04CFF06
S214001C20602105460322384601F040FF05F0030315
S214001C30023B012BE3D82123C8F8503004E0BDE86E
S214001C40F0812223C8F850303268944218BF002032
S214001C5005D0A368E06193421C46FAD17360D8F8B9
S214001C6024300BB14046984708F12800BDE8F04103
S214001C7033F072BB716A3731384649000122BDE83D
S214001C80F04101F01DBF00BF38B54B68DA6912039A
S214001C9017D50868DD68834218BF002405D09A6807
S214001CA0DC6182421346FAD14A606B6A22222A65B8
S214001CB00BB12846984705F12800BDE8384033F0B8
S214001CC04BBB38BD70B5C56AFDB106462C4694E8D8
S214001CD00C009A4202D0DB691B0304D5A4686CB1E1
S214001CE0A542F4D170BD2146304602F08DF9A468B5
S214001CF00028F4D134B1F462002CF1D1B46A002C7F
S214001D00EED170BDB36AF362E9E7856A002DDCD1D7
S214001D10E8E700BFF8B58C687CB3236943F08043DE
S214001D2023610646012032F0EFFFE268A3685AB34B
S214001D3093600021F16203B1DA6094E80C009342EC
S214001D4018BF002104D0D9619B689A42FBD162601B
S214001D500025D561EFF3108772B664213046A28C59
S214001D6001F0B4FE304668214FF4404201F09EFE7A
S214001D7087F3108825612846F8BD022001215322EA
S214001D8033F0DEF85320F8BDB362D2E7F8B50F465D
S214001D9030210446154601F08FFE30214FF4C06214
S214001DA00646204601F082FE20463A2101F084FED7
S214001DB0012D7B6A0FD001229A4020EA02022046BB
S214001DC092B23A2101F082FE2046B2B23021BDE83E
S214001DD0F84001F07BBE9D4040EA0502EFE700BFF9
S214001DE0F8B50F4630210446154601F065FE302151
S214001DF04FF4E0620646204601F058FE20463821A1
S214001E0001F05AFE012D7B6A0FD001229A4020EA8B
S214001E100202204692B2382101F058FE2046B2B2A5
S214001E203021BDE8F84001F051BE9D4040EA050271
S214001E30EFE700BF70B506460D4600F085FC831E32
S214001E400446032B03D8DFE803F01A0E0E0C3046C8
S214001E502946002200F01AF8304629460022FFF7ED
S214001E6095FF204670BD30462946002200F00EF849
S214001E70304629460122FFF789FF204670BD3046CE
S214001E802946012200F002F8204670BDF8B50F463C
S214001E9030210446154601F00FFE30214FF4E06273
S214001EA00646204601F002FE2046362101F004FEDA
S214001EB0012D7B6A0FD001229A4020EA02022046BA
S214001EC092B2362101F002FE2046B2B23021BDE8C1
S214001ED0F84001F0FBBD9D4040EA0502EFE700BF79
S214001EE070B50C4610225C21054601F0E9FDA36A98
S214001EF0012B34D9022B0CD000262846214600227E
S214001F00FFF7C4FF284621460022FFF73FFF304672
S214001F1070BD2846214600F0E1FD0646B31E032BA1
S214001F20EBD801A252F823F0511F0000391F000021
S214001F30391F00000F1F0000284621460022FFF729
S214001F40A5FF284621460122FFF720FF304670BD38
S214001F50284621460122FFF799FF304670BD2846E5
S214001F60214600F023FE0646D8E700BF2DE9F843D9
S214001F70054688460124A6B232462846642101F06A
S214001F80A5FD2846682101F097FD10F4404F05D0C6
S214001F900134062CEFD1FF20BDE8F883284600F078
S214001FA0A1FA074600287FD0284601F093FD0028B6
S214001FB000F09080AB6A7C624FF40072C8F808703C
S214001FC0C8F87820C7F8148038607860BB60AF62C5
S214001FD003B1DF60D8F81430E20003F00F0804F114
S214001FE03701082013F0800FF8623A6328464FF056
S214001FF00002C7F820804FEA410114BF144610249F
S21400200001F05EFD7B6A03F13701284649004FF474
S214002010007201F055FD7B6A03F13701490028463E
S2140020204FF4007201F042FDEFF3108972B664219E
S2140020303246284601F04AFD6A68474B9A4236D037
S21400204048F4814222432846682101F03FFD7B691F
S214002050DA6ADB69D26843EA023292B228466C2119
S21400206001F034FD3C4B6A689A424DD0D5F82831D1
S214002070002B3BD0002C41D1D5F82C31002B3AD088
S2140020803B6A002B37D00123BB627B6A403328466D
S21400209045F823702C214FF4005201F011FD89F30E
S2140020A010880020BDE8F8831420BDE8F883002CD3
S2140020B049D148F487422846682101F007FDFA6AAC
S2140020C03B6B013A43EA822292B228466A2101F02B
S2140020D0FDFCBCE738611320BDE8F883890028467C
S2140020E0002201F0F3FCD5F828313BB9D5F82C31A5
S2140020F00BB1002CC4D00223BB62C6E73B6A002BA0
S214002100F9D00023BB62C0E77B6A03F12301002CF1
S214002110E4D122468900284601F0D8FC7B6A990063
S2140021208E312846012201F0D1FC7B6A03F123019F
S214002130890028464FF4007201F0C8FCD5F82C310F
S214002140002B9DD1D7E748F48342224328466821D6
S21400215001F0BCFCB3E700BF00000640F8B50C4633
S21400216064216768A28CFB6943F40023FB61054683
S21400217001F0ACFC616A373149002846032201F0C1
S21400218095FC636A012606FA03F292B228464A21B3
S21400219001F08CFC636A06FA03F292B228464621E6
S2140021A001F084FC3B6AB3F5805F1CD0B3F5006F8A
S2140021B001D00020F8BD616AA3693731490028467E
S2140021C0C3B3802201F07CFC28462146FFF788FE38
S2140021D0FF28EED0616A373128464900012201F017
S2140021E06FFC0020F8BD616AA3693731DBB1490096
S2140021F02846802201F064FC284621460122FFF78B
S21400220045FE284621460122FFF7EAFD616A37317E
S21400221028464900012201F053FC636A403300203F
S21400222045F82340F8BDB14028464FF4807201F0CF
S21400223047FCE1E74FF4807201F042FCC4E700BFC0
S214002240F8B54FF400738B670D46CF6A064600F06C
S21400225049F9044638B3304601F03CFC28B3B36A6B
S214002260AC60656120606060A360B46203B1DC604E
S214002270EA693B6C002192090220E26221636162F6
S214002280A06223B1DA687969D30243EA01233A6986
S214002290012A14D0022A0BD043F04003A386002064
S2140022A0C6F80041F8BD1420F8BD20611320F8BD23
S2140022B043F0C003A3860020C6F80041F8BD43F0F3
S2140022C08003A3860020C6F80041F8BDF8B54D6827
S2140022D0EA6942F4002312F480340F460646EB61A6
S2140022E008D12B6AB3F5805F70D0B3F5006F4FD07E
S2140022F00020F8BD4B698A8EDB6ADC6804F1680151
S214002300490001F0E3FB30465E214FF4704201F0D5
S214002310CDFB2203304602F470425E2101F0D0FB72
S214002320304660214FF4807201F0CAFB286833F013
S21400233015F8542182B2304601F0C8FB28680230F6
S21400234033F00CF8562182B2304601F0BFFB286805
S214002350043033F003F8582182B2304601F0B6FB61
S2140023602868063032F0FAFF5A2182B2304601F071
S214002370ADFB3046C6F800716021802201F0A0FB5C
S214002380304660214FF4804201F09AFB0020F8BDF1
S21400239022214FF4804201F093FB30466021032255
S2140023A001F084FB6B6A30466021E3BB4FF4807219
S2140023B001F086FB39463046FFF792FDFF2897D09E
S2140023C030466021012201F07BFB91E76021032269
S2140023D001F06CFB30463946224600F031F86B6A55
S2140023E0304660211BBB4FF4807201F069FB30461B
S2140023F05C21102201F05AFB304622214FF4804225
S21400240001F064FB304639460122FFF7BFFC304638
S21400241039460122FFF73AFD30466021012201F0DD
S2140024204FFB0020F8BD802201F04AFBC2E7802265
S21400243001F046FBDBE700BF036800201863704727
S2140024408B6A012B70B50C461646054625D013D36D
S214002450022B10D1202101F02FFB626A20F442608B
S21400246020F00F003243024392B228462021BDE8F6
S214002470704001F02BBB70BD282101F01DFBA28C23
S21400248020F4406020F00F003243024392B2284608
S2140024902821BDE8704001F019BB2C2101F00CFB8F
S2140024A0A28C20F4406020F00F003243024392B228
S2140024B028462C21BDE8704001F008BB0A6A38B5F2
S2140024C012B94B69D86938BD0C46054664210F22FF
S2140024D001F0ECFA28466421A28C01F0F7FA636951
S2140024E0D86938BD0D4B1B6810B5C469186A58B159
S2140024F0236953B1002301E0226932B101338342DC
S21400250004F13804F8D1002010BD204600213822FE
S21400251032F0ECFE01232361204610BD0415002096
S214002520496A21B137314900032201F0BFBA602160
S214002530032201F0BBBA00BF8B6800209861704789
S214002540036B10B583B14B1ED0F8A840102B00F2D9
S2140025508880DFE803F047413B352F29231D5E586E
S214002560524C73647917100002200121552232F074
S214002570E7FC552010BDD4F8D030012B00F0888041
S214002580002010BD20461146BDE81040FFF7D4BF1E
S21400259020461146BDE8104001F052BA20461146CA
S2140025A0BDE8104001F07ABA20461146BDE810405A
S2140025B001F076BA20461146BDE8104001F072BA26
S2140025C020461146BDE8104001F0CAB92046114623
S2140025D0BDE8104001F0D6B920461146BDE81040CF
S2140025E001F030BA2046BDE81040FFF725BF204670
S2140025F01146BDE8104001F0E3BC2046114600F04D
S2140026001FFC002010BD20461146BDE8104000F01B
S214002610E9BB20461146BDE8104001F0D5B99369E4
S21400262003F00303022B204611462DD0032B27D0A0
S214002630012B21D0BDE81040FFF702BE2046114610
S214002640BDE8104001F0ECBC936903F00303012BD6
S214002650204611460CD0032B0AD0BDE81040FFF7E9
S21400266059BB02200121542232F06AFC542010BDCE
S214002670BDE8104001F0D0B8BDE8104001F072B8D7
S214002680BDE8104000F0A8BDBDE81040FFF76EBCE6
S214002690204601F063F82046FFF78EF8204601F04A
S2140026A05FF8D4F8BC30002B3FF46AAF204601F048
S2140026B0EBF82046FFF706FB62E700BF70B506465C
S2140026C00D46FFF7BDFE0424AB6A012B11D00BD3D9
S2140026D0022B05D13046222101F0EEF9830402D404
S2140026E0013CF1D1FF2070BD30462A2101F0E4F90B
S2140026F0F4E730462E2101F0DFF9EFE7F8B51F4684
S214002700144606464FF440620D46196801F0CEF9AD
S21400271030463968002201F0D3F923685BB12A6895
S2140027207968097811702A682168013201392A60AF
S21400273021600029F4D13046B9684FF48042BDE8E4
S214002740F84001F0BDB900BF2DE9F0438B6A8BB0AD
S2140027500E460546002B4ED0012B10D04368202194
S2140027601433222204930391059228463146002210
S214002770FFF7A4FFFF2810D10BB0BDE8F083436835
S2140027802C212E221C330391059228463146002226
S2140027900493FFF793FFFF28EED073697768DC6930
S2140027A0C0F30B03BB61284631460793FFF7B8FE1C
S2140027B07B68079A934226D3002A55D0B2FBF4F3DF
S2140027C004FB1324002C134614BF04240224D5F85B
S2140027D02C113A68069211B1B66A012E46D0D2077D
S2140027E01FD5284606A907AA03ABFFF787FF204692
S2140027F00BB0BDE8F0834368282118332A220493DF
S21400280003910592B1E707930724002BDFD12846F2
S21400281005994FF4804201F053F920460BB0BDE80D
S214002820F0835E087700DB1B2846039907934FF476
S214002830406201F03BF9284603994FF4806201F0AC
S2140028403FF94EB10698049903460A8823F8022BEE
S214002850013EFAD107440697079B002BD7D0049A6F
S214002860069B12881A70D2E70424D0E7032BB6D949
S21400287005F5BA704FF0FF3132F06CFD504B6A68C8
S21400288008969A42069B01D1980778D0D90756D564
S2140028900123D5F844218DF82430D178079B6FF3B7
S2140028A00511B3F5806FD17046D9C3F34F030221EB
S2140028B0D381089100262846039907964FF4406274
S2140028C001F0F4F828463246039901F0F9F8D5F8F5
S2140028D044110798CB89069AA5F890019BB2C5F8D3
S2140028E09421002B3FF47DAFCE8991F803E09DF84C
S2140028F02470DDF82080D5F82C31B6B207FB06F63A
S2140029001FFA88F9CEF30117D3F808C01868CB89E8
S21400291004998DE8800208FB0626C5F894619BB2F0
S214002920DCF82460B047D5F82C319A68186813692B
S2140029300121984720461FE79BB2D381BAE7079B41
S214002940D5F844210399C3F34F0602208DF82400DE
S214002950D681D089D678012767F3051680B2D6705F
S214002960A3EB40034FF440622846079301F09EF81D
S214002970284603994FF4806201F0A2F8A7E7079B68
S214002980D5F844210399C3F38F0604208DF824005C
S214002990D681D089D678022767F3051680B2D6701E
S2140029A0A3EB80034FF440622846079301F07EF8BD
S2140029B0284603994FF4006201F082F887E700BFCB
S2140029C000000640F8B514461D46E3070E460746C7
S2140029D006994FF4406226D401F068F83846069906
S2140029E04FF4806201F06CF8D7F804E0184A7308D8
S2140029F05F009645A6EB070108BF023533B12246B5
S214002A0032F8020B2880013BFAD13C44F1B1104B5E
S214002A109E4508BF0135621814F8013B05F80139D8
S214002A209442F9D1F8BD01F041F8002238460699E3
S214002A3001F046F87A68064B9A4208BF03352EB175
S214002A40A11914F8013B2B708C42FAD1F8BD00BFD7
S214002A50000006402DE9F0431F4D1446426883B03F
S214002A60AA420646DDF828800F4609D03046394689
S214002A702246CDF8288003B0BDE8F043FFF7A2BF9A
S214002A80A207F3D18D084FF44062414601934FEA06
S214002A90850901F00BF8304641464FF4006201F01C
S214002AA00FF8C9EB0707019B35B1224652F8041B05
S214002AB01960013DFAD14C445FB17168064A9142F3
S214002AC008BF0333274414F8012B03F80129BC423E
S214002AD0F9D103B0BDE8F0830000064070B50B6A7C
S214002AE082B00C46054633B92022FFF7E7FDFF28E3
S214002AF006D102B070BD0022FFF7E0FDFF28F8D037
S214002B0021462846FFF7DAFC62696368D26959688D
S214002B108A42064619D349B3B1FBF2F002FB101203
S214002B20002A14BF042403241A686B682020143378
S214002B3000902846FFF78EFF2846222100F0BCFFB3
S214002B40030415D5204602B070BD1A680C496B68A0
S214002B50202428468B4214BF31464FF4007100945F
S214002B601433FFF777FF022002B070BD0424DBE7C2
S214002B70284622214FF4004200F0A8FF2046B8E77E
S214002B800000064010B444680748844208BF033378
S214002B9031B1114412F8010B03F801098A42F9D148
S214002BA05DF8044B704700BF000006402DE9F04F6B
S214002BB0002283B005460E46FFF780FDFF2802D1AF
S214002BC003B0BDE8F08F28463146FFF777FC7369FF
S214002BD0D6F804E0DA69DEF804309A4207466BD28B
S214002BE06B687F4A0224934208BF4FF40077B26AAC
S214002BF0002A6ED103F118064FF02A0A4FF0280972
S214002C00284651464FF48042DEF8008000F058FF18
S214002C10D5F82831002B00F0B580714B6A689A42CF
S214002C20D5F8303103D118F0030F00F0B78018F054
S214002C30010F00F08380B7F5806F59D9C7F34F02B4
S214002C40DA814FF0020BD978DA896FF30511D97063
S214002C50284693B249464FF4406203FB1B7700F0C8
S214002C6025FF00222846494600F02AFF5C4B6A688A
S214002C709A4200F083804FF00109D5F83021D389BD
S214002C809BB2002B39D1D28992B24FB16B680BFB45
S214002C9009FB02FB0B82394618332846FFF772FF02
S214002CA0022C05D02846514600F006FF030417D52F
S214002CB0204603B0BDE8F08F1F462BB1B3FBF2F100
S214002CC002FB1132002A66D0B26A6B680424002A1E
S214002CD090D003F11C064FF02E0A4FF02C098FE718
S214002CE0284651464FF4004200F0EAFE204667E7C9
S214002CF0BAB2DA814FF0010BA5E7D5F8283192F881
S214002D0003E099681868D389CDF804B0CEF30112B1
S214002D1000929BB232464E6A4146B047D5F82831FB
S214002D209A68186813690121984705F5AC704FF04A
S214002D30FF3132F00FFBD5F83021A4E7C7F34F027E
S214002D40D978DA81DA894FF0010B6BF30511D97067
S214002D50284693B249464FF44062A7EB430700F07B
S214002D60A5FE4FF480622846494600F0A9FE1C4B9B
S214002D706A689A422FD04FF002097EE703364FF07A
S214002D8001097AE7CDF80090394642463346284690
S214002D90FFF760FE84E76B68032428E7C7F38F021B
S214002DA0D978DA81DA89022060F30511D9702846CD
S214002DB093B249464FF44062A7EB830700F076FED5
S214002DC0494628464FF4006200F07AFE4FF00409A8
S214002DD04FF0010B51E702364FF002094DE700BFF6
S214002DE00000064030B583B000230C46082101934E
S214002DF0054600F061FE10F0100014D10090009B14
S214002E000E4A934208D8019B01330193009B01337D
S214002E100093009B9342F6D9686901306861206090
S214002E20002003B030BD28464C2100F045FEC0F31C
S214002E300A0068612060002003B030BD3F0D03002B
S214002E40704700BFF0B5D0F89420B54985B0002390
S214002E5005468A424FF03300009301938DF8000038
S214002E6000F01081AF4B9A4207D002200121322297
S214002E7032F066F8322005B0F0BD0226FF24684620
S214002E8006F068FBA84B01AA1B69684631469847BE
S214002E909DF8042053B213F1210F00F0F980002BA7
S214002EA0C0F2F98003F16040240102F01F0200F531
S214002EB061405B0901219D4EE4B201FA02F280F8FE
S214002EC0004346F82320002001464FF4CC7232F02F
S214002ED0D3F80646002800F0D280954C23681A6A7C
S214002EE0C2EBC202D2000F20002132F0C5F8F0611A
S214002EF0002800F0C48023685A6A02EB42021201DE
S214002F001F20002132F0B8F83062002800F0B780A9
S214002F1023689A6A02EBC20292001F20002132F058
S214002F20ABF8336A7062002B00F0A980304600F0E0
S214002F30CFFC044600289ED1D5F894107D48C5F8ED
S214002F40A400012308224FF466772B642C63C5F88F
S214002F50A8606C63C5F898703046F3607160C6F878
S214002F60D420214610223560C6F82841C6F82C41E8
S214002F70C6F8D04000F09AFD30462146202200F0E8
S214002F809FFD30462146402200F09AFD654B726850
S214002F909A422146304600F08680802200F090FD5E
S214002FA030463E214FF4004200F080FD30463E2180
S214002FB0102200F085FD30463E21202200F080FDE4
S214002FC078230293029B4BB130463E2100F074FDFD
S214002FD0029B013B0293029B002BF5D130463E211B
S214002FE0012200F063FD544B0293029B4BB1304626
S214002FF03E2100F061FD029B013B0293029B002BE9
S214003000F5D130463E21022200F050FD30464FF406
S21400301081714FF4804200F053FD3046062100F0E7
S2140030204BFDC307F9D5304600214FF4807200F0FF
S21400303047FD30460021202200F042FD30460821A0
S2140030404FF4007200F032FD30460021012200F0FD
S21400305037FD304620214FF4004200F031FD304667
S2140030602821002200F02CFD002230462C2100F002
S21400307027FD2B4B72689A422AD00020FBE61220CE
S21400308005B0F0BD01238DF8013004260824F6E6CD
S214003090322005B0F0BD294B02F00F022401134484
S2140030A0E4B21C760FE74FF4806200F009FD30466C
S2140030B0002100F001FD4205F9D53046F0210F222F
S2140030C000F0F4FC3046F021052200F0F9FCB0E7F1
S2140030D004AC0F2200253046022144F8045D00F0BF
S2140030E0E5FC174B21469B6928469847039A154BE3
S2140030F01548A3FB02135B0D03EB8301A0FB020242
S2140031004900B1EB524F38BF0133022B8CBF9A1ED9
S2140031100022304692B2022100F0D2FC0020AAE63D
S21400312000000640000009406895030000E100E04A
S2140031300415002041250000C0D40100FCEC00E08E
S2140031400C960300B945511FDBC9921310B5012335
S2140031500C4603604021204600F0AEFC4021C0F340
S2140031600A02204600F0B2FC204642214FF4C0522C
S21400317000F0ACFC2046362140F2FF3200F0A6FC00
S2140031802046382140F2FF3200F0A0FC20463A21CB
S21400319040F2FF3200F09AFC204630214FF41C52D9
S2140031A000F094FC2046322148F6500200F08EFCD7
S2140031B02046BDE8104000F077BC00BF38B5054695
S2140031C0FFF740FE044628B905F13000D5F8A810F0
S2140031D0FFF7BCFF204638BD2DE9F0470546884678
S2140031E00624A6B232462846642100F06FFC284624
S2140031F0682100F061FC10F4404FA4F1020705D0EE
S21400320001340A2CEDD1FF20BDE8F0874FF400739F
S214003210C8F878302846FFF765F9814600286DD053
S2140032204462284600F056FC0346002869D0C8F8D9
S21400323008902846C9F81480C9F80030C9F8043048
S21400324000F0C8FAD8F82010002972D01F2971D9CA
S21400325083680BB1C3F80C90D8F81420C9F808306E
S21400326002F00F0400231206C9F80C00C0F80890FC
S214003270C9F83070C9F82C3048BF1F46D9F824303A
S214003280C9F8204003F138014FEA410128464FF0C3
S214003290000258BF102700F013FCEFF3108872B638
S2140032A064213246284600F011FC44F4004242F005
S2140032B080023A432846682100F008FCD9F814300A
S2140032C0DA6ADB69D26843EA023292B228466C2197
S2140032D000F0FCFB88F31088D5F82831B3B107B3AB
S2140032E0D9F820300BB30023C9F82830D9F8243099
S2140032F04033002045F82390BDE8F0871420BDE851
S214003300F087C9F810001320BDE8F087D5F82C31F7
S2140033105BB157B9D9F820303BB10123C9F8283042
S214003320E4E7D5F82C31002BF4D10223C9F8283075
S214003330DCE70121012210230B424FEA530302D19E
S2140033400132062AF8D180680369002BFBDA013ABD
S2140033503FF47EAF80680369002BF4DAF7E700BF1E
S2140033602DE9F047CC4E33681B69AC2404FB0034CF
S214003370636B53B9D4F8A850226BD5F8C430012A31
S21400338003F10103C5F8C43001D0BDE8F087302151
S214003390284600F091FB32218046284600F08CFB40
S2140033A040210746284600F087FB00EA0800C5F8DB
S2140033B0C8004221284600F07FFBD5F8C8303840C8
S2140033C09F04C5F8CC0000F16B81000400F1588121
S2140033D0D5F8C830590500F12581DA0500F1F480EA
S2140033E09B0500F1C580D5F8CC301F0579D4D804EC
S2140033F063D4590434D4DA0619D49B06C5D52846B6
S2140034004FF6DF72422100F061FBD5F8D820D4F8E1
S2140034108C30306842F020020133C5F8D82000F521
S2140034201B70C4F88C30BDE8F04731F095BF2846D5
S21400343042214FF6EF7200F049FBD5F8D820D4F8B9
S2140034408C303068013342F04002C5F8D82000F5D1
S2140034501B70C4F88C3031F07FFFD5F8CC30CCE749
S214003460284642214BF6FF7200F030FBD5F8D070AC
S21400347007BB2B69012B1DD0284632214FF4804212
S21400348000F014FB284632214FF4805200F018FB5F
S214003490636C01210B4463642846C5F8D0103A4695
S2140034A05E2100F00DFB30684FF0FF33E430AB6177
S2140034B031F052FFD5F8CC309DE7284642214EF633
S2140034C0FF7200F003FB284642214FF2FF7200F025
S2140034D0FDFAD5F8D030012B00F00281D5F8CC30BB
S2140034E087E7284642214FF2FF7200F0EFFA4EF6C9
S2140034F0FF722846422100F0E9FA0421284600F02F
S214003500DBFA10F002074FF03C0128464FF48072B9
S21400351000F0D98000F0D4FA604B6A689A4200F056
S2140035201481D5F8D07007BB2B69012B1DD0284617
S21400353032214FF4006200F0B9FA284632214FF4E7
S214003540805200F0BDFA636C01210B446364284688
S214003550C5F8D0103A465E2100F0B2FA30684FF057
S214003560FF33E430AB6131F0F7FED5F8CC303EE700
S2140035702846482100F0A0FA05F1D807824605F54E
S21400358080794FF001086FEA080218EA0A0F284609
S2140035904FF0480192B24FEA480807D0BB6A1BB109
S2140035A03B6843F002033B6000F090FA04374F4557
S2140035B0E9D1D4F88C3030680133C4F88C3000F58B
S2140035C01B7031F0C9FE0EE72846462100F074FA5B
S2140035D005F1D807824605F580794FF001086FEAB5
S2140035E0080218EA0A0F28464FF0460192B24FEA40
S2140035F0480807D0BB6A1BB13B6843F001033B6039
S21400360000F064FA04374F45E9D1D4F88C303068BE
S2140036100133C4F88C3000F51B7031F09DFED5F8F0
S214003620C830DDE628464A2100F046FA05F1D807FC
S214003630824605F580794FF001086FEA080218EA1D
S2140036400A0F28464FF04A0192B24FEA480807D0C0
S214003650BB6A1BB13B6843F004033B6000F036FADC
S21400366004374F45E9D1D4F88C3030680133C4F8BC
S2140036708C3000F51B7031F06FFED5F8C830ACE624
S2140036802846422147F6FF7200F020FA0120014644
S214003690432231F055FC9BE604150020000006404E
S2140036A0284640214DF6FF7200F010FAD4F88C3010
S2140036B030680133C4F88C3000F51B7031F04CFED6
S2140036C0D5F8CC0081E600F0F1F9234B6A689A42FF
S2140036D07FF427AF39462846802200F0F1F920E72C
S2140036E02B69012B7FF4FAAE284632214FF4805224
S2140036F000F0DCF9322128464FF4006200F0E0F9D1
S21400370005F1FC0305F5927153F8042F2AB153F81E
S214003710282C42F0800243F8282C8B42F4D1D4F8AF
S2140037208C3030680133C4F88C3000F51B7031F0F3
S21400373013FE636C3068002201336364E430C5F81E
S214003740D0202A6131F008FEC8E6284600218022F3
S21400375000F0ACF9E5E600BF00000640704700BF89
S214003760704700BF70B50E460546FEF7BBFE044622
S21400377068B1284600F010F858B12B6BB460206092
S2140037806060A3602C6303B1DC60002070BD142071
S21400379070BD2061132070BD0D4B1B6810B5446AC8
S2140037A0986A58B1E36953B1002301E0E26932B187
S2140037B00133834204F12404F8D1002010BD2046D2
S2140037C00021242231F092FD0123E361204610BD42
S2140037D004150020F0B5054600F1B00E55F8346F1C
S2140037E04FF0FF373046334600249A684AB11969CD
S2140037F0002902DB5B69DB691C4413469A68002AD1
S214003800F5D1BC423CBF27463046754502D055F838
S214003810046FE8E7F0BD00BF70B58C6864B3236939
S21400382043F0804323610646012031F06DFAE268DA
S214003830A368936003B1DA6094E80C00934218BF63
S214003840002104D0D9619B689A42FBD162600025B2
S214003850D5613046A28C642100F038F930466821E4
S2140038604FF4404200F022F9D6F8B8302561013B0B
S2140038702846C6F8B83070BD02200121532231F028
S2140038805FFB532070BD00BF10B582B001A904468F
S214003890FFF7A8FA019B03F01F0304EB83020193D2
S2140038A0516B69B10B69B3F1004F06D091E80C007B
S2140038B09A4202D0DB691B0304D589680029F1D13E
S2140038C002B010BD204600F09FFB02B010BD00BF46
S2140038D02DE9F043C1B00546002120A8802235F02E
S2140038E048F920260027EEB1E94600244FF00048AC
S2140038F00FE0C0F810806FB35DF83420D9F80430BC
S214003900906098604DF824000134B44209F108092B
S21400391008D02846FEF7E6FD0028EAD1142041B07C
S214003920BDE8F0830137062F4FEA5606DBD10B4978
S21400393005F13002B03551F8043F40A800EB830390
S21400394053F8803C42F8043FAA42F4D1002041B02C
S214003950BDE8F08320AB43F82400D3E78402FE1FC3
S21400396008B5C3688B4206D202200121562231F0E8
S214003970E7FA562008BD0821102200F097F800202C
S21400398008BD00BF38B5C3688B4204460AD3D0F8DA
S214003990D050012D0DD0022001215F2231F0D0FA47
S2140039A05F2038BD02200121562231F0C9FA562088
S2140039B038BD0821102200F083F8052007F064FFC8
S2140039C02561002038BD00BFC3688B4210B5044691
S2140039D006D202200121562231F0B2FA562010BD3E
S2140039E000F030F8C20706D4022001215F2231F031
S2140039F0A7FA5F2010BD20460821402200F060F89C
S214003A0008211022204600F051F8062007F03CFF5F
S214003A1020460821102200F053F8204608214022B4
S214003A2000F044F8032000E0022007F02DFF2046B7
S214003A30082100F041F84307F6D4002010BD00BF6F
S214003A4054207047C2688A42034601D25620704707
S214003A50D0F8D020012A02D000201861704710B597
S214003A600821044600F028F800F00703022B12D0C5
S214003A70032B0BBF81230123802100210122226119
S214003A80C40648BF41F00303420602D543F01000C7
S214003A9010BD184610BD41234021EFE75420704763
S214003AA05420704754207047704700BF40680B5A38
S214003AB023EA02020A5270474368C85A704700BF9A
S214003AC040680B5A1A430A52704700BF4368CA52EE
S214003AD0704700BF38B5154D2B68044603F1180033
S214003AE031F01CFC124B246A1B68596A51B1E36919
S214003AF073B1002301E0E26952B101338B4204F155
S214003B003004F8D12868183031F006FC002038BDA3
S214003B1020460021302231F0E9FB286801231830C6
S214003B20E36131F0F9FB204638BD00BF0C150020DC
S214003B30041500204B682DE9F04FD3F808B05A69F9
S214003B40DBF81430CD68DBF80040DB69D1F808A05C
S214003B50160685B0884684465DD4C5F30802002A5A
S214003B604DD000264FF400614FF480524FF00049CC
S214003B70D8F81400C4F800A09D422F4628BF1F4660
S214003B800006E069C4F80C8040F40030A5EB070599
S214003B90C4F814B067604CBF22622162C4F8249057
S214003BA0E06165B96046FFF795FF00284AD000231C
S214003BB0A060CBF80000184605B0BDE8F08F604660
S214003BC0039202910193CDF800C0FFF783FFDDF862
S214003BD000C0019B0299039A30B1A060002E08BF76
S214003BE006460446BA44C3E726B1B368F0611E46EB
S214003BF0002EFAD11323184605B0BDE8F08F412BEE
S214003C0028BF4FF40073002DABD16046FFF762FF6C
S214003C100028CCD1EEE71B4A41689142F3D1402BF5
S214003C20F1D9C5F308020190A2B1DBF82420009375
S214003C3091008E310122FFF749FF9DE80810002D04
S214003C408FD1E2E7002ED5D0B368F5611E46002B73
S214003C50FAD1CFE7DBF82420009391008E314FF4A1
S214003C600076B6FBF3F6B2B2FFF730FF012E009BEC
S214003C70DDF804C018BF4FF40073002D7FF471AF59
S214003C80C3E700BF000006402DE9F04F4B6807462B
S214003C90002085B0884608220146D3F808B031F0E7
S214003CA0EBF903900446002800F08180D8F818301D
S214003CB00370D8F814300370D8F818304370B8F88A
S214003CC01C10023031F050FB20460430B8F82010AB
S214003CD031F04AFB20460630B8F80C1031F044FBB1
S214003CE0DBF80090D7F8BC00D9F81C20D8F80C6098
S214003CF0C9F80040082342F4803201304FF40064D3
S214003D000025C9F80430C9F80C80D8F80830C9F87E
S214003D1014B0C7F8BC00C9F81C20C9F82040C9F880
S214003D202450002E00F0998002944FF0010A29E0FA
S214003D30DBF81400D8F81420C0692360B04228BF0E
S214003D40304612064CBF4FF48052029A60602262E0
S214003D50361AD7F8BC20C4F80C800344E069C4F8CF
S214003D6024A040F400300132C4F814B0E0618AF0B8
S214003D70010AC9F80840002D08BF2546C7F8BC2030
S214003D80A146C6B138460193FFF7A4FE019B044640
S214003D900028CDD1039831F019FA25B1AB68EC6153
S214003DA01D46002BFAD1132005B0BDE8F08F122077
S214003DB005B0BDE8F08F3846FFF78CFE8246002837
S214003DC052D02646DAF81C30D8F81420CAF80C80F0
S214003DD043F48023CAF81C3013064CBF4FF400632C
S214003DE04FF48053CAF8203001220023CAF814B0DA
S214003DF0CAF80030CAF80430CAF824203846C4F896
S214003E0008A0FFF767FE0446B8B1D7F8BC30CAF87A
S214003E1008000133CBF800004FF47A7108F128004F
S214003E20C7F8BC3031F096FA80B9039831F0CEF975
S214003E30D8F8500005B0BDE8F08F039831F0C6F909
S214003E4006B1F4610023CAF81C30ACE7404631F0F6
S214003E5059F85C23C8F85030E7E73846FFF73AFED3
S214003E60824650B14C46ADE7039831F0AFF9AB68E7
S214003E70EE611D46002BFAD195E7039831F0A6F9BE
S214003E80132091E74A684B6970B595688E682C6870
S214003E90CA6826601B064CBF4FF480534FF400637D
S214003EA02362E369626043F400334FF00046E36147
S214003EB06662E1606561FFF70DFE034618B1A0601B
S214003EC000202B6070BD132070BD00BF2DE9F04FA1
S214003ED04B68D1F854B09D6885B00E468146BBF15C
S214003EE0000F03D1D3F81CB0C1F854B02C686B682F
S214003EF09C4255D0E8690390F768B168002F57D008
S214003F00CBEB07074FF000084FF4006A73691B06F7
S214003F1044BF4FF48053236200F1010358BFC4F836
S214003F2020A0E86184E80208E660039365615FB953
S214003F30EB614846FFF730FC38B30023A0602860EA
S214003F40184605B0BDE8F08F48460191FFF724FCFF
S214003F50019950B1A060B8F1000F08BF8046044632
S214003F6059440398CBEB0707D0E7B8F1000F07D00A
S214003F70D8F80830C8F81C009846B8F1000FF7D1FA
S214003F801323184605B0BDE8F08FB8F1000FF7D040
S214003F90D8F80830C8F81C709846002BF8D1EFE720
S214003FA0484603A9FEF71EFF0398031DEB61A3E72F
S214003FB0E8614846FFF7F0FB0028BED1E0E700BF07
S214003FC0D0F8D030012B01D05F2070474B689B693A
S214003FD003F0030310B4022B4FF000040C6106D06C
S214003FE0032B0CD03BB15DF8044BFFF76FBF5DF8B9
S214003FF0044BFFF79FBD5DF8044BFFF745BE5DF829
S214004000044BFFF73FBF00BF08B54B691B691BB1E8
S214004010FEF7A4F8002008BDFEF758F9002008BDFA
S214004020F8B54B689C68002C39D0236943F0804370
S21400403023610546012030F067FE94E80C009342A9
S21400404018BF002104D0D9619B689A42FBD16260F8
S214004050EFF3108672B6236AABB128466421A28CB1
S214004060FFF734FD616A373149002846FFF724FD23
S21400407000F00300012819D086F310886FF0804303
S21400408023610020F8BD284621462022FEF7D8F9F5
S214004090284622214FF48042FFF712FDECE702206B
S2140040A00121532230F04CFF5320F8BD636A03F120
S2140040B03701490028460322FFF7F8FC636A03F13C
S2140040C03701490028464FF40072FFF7F9FC636A8F
S2140040D003F13701490028464FF40072FFF7E6FC6B
S2140040E0284621460022FEF7ABF9A36A83B1012BCE
S2140040F00CBF2E27222728463946FFF7DDFC83040F
S214004100BAD5284639464FF48042FFF7D9FCB3E7C4
S2140041102A27F0E720B1034B1B6803600020704796
S214004120012070472094030000282CD0F0B5446886
S21400413087B01CB1144B22689A4201D007B0F0BD7C
S214004140236DA16D226CE66C106802930B44976891
S214004150A56C23655A18B24289BF00235A001A4636
S21400416023650591B4F85430616C04952A447E6842
S214004170B047236E039300228DF80420E36D01A858
S214004180984707B0F0BD70474743444128B1174BE6
S21400419002689A4203D007207047012070472DE935
S2140041A0F041826BC36BD6681568D3F808801F6829
S2140041B0041D2046002106F07BF910B10820BDE85A
S2140041C0F0812846B3689847054648B1204606F071
S2140041D09BF910B16420BDE8F0812846BDE8F08167
S2140041E0D8F80830384698470546EFE74743444135
S2140041F028B1104B02689A4203D00720704701206E
S214004200704770B5C36B041D204600219E681D686C
S21400421006F04EF908B1082070BD73682846984726
S2140042200546204606F070F900280CBF2846642094
S21400423070BD00BF4743444128B1244B02689A42F0
S21400424003D007207047012070472DE9F041061D76
S21400425004460021304606F02BF910B10820BDE8D0
S214004260F081E36B9A681868136A9847A36BDA685C
S21400427007461868D3699847236C9A68002818BFC1
S2140042800746D26918689047054630463DB106F0A5
S2140042903BF9072D80460BD02846BDE8F08106F096
S2140042A033F9072F804604D01FB13846BDE8F081A9
S2140042B02F46304606F0E6F8002350EA08020CBF08
S2140042C0384664202360BDE8F08100BF4743444180
S2140042D02DE9F04F9FB098B1894B02689A4214D0EE
S2140042E071B1CB6963B10B6853B14A6842B18F684C
S2140042F037B14C6974B9032738461FB0BDE8F08F54
S214004300012738461FB0BDE8F08F082738461FB093
S214004310BDE8F08F061D8363C26305460C4607643E
S214004320002130460122342306F054F820B16427D9
S21400433038461FB0BDE8F08F0146304606F0B8F8A4
S2140043400028F4D16368AA6B5F68EB6BD2F80C8028
S214004350D3F808A01B68D2F8009000930FCF0DF199
S214004360580EAEE80F0097E80F008EE80F002268A0
S214004370DFF894B1D2F804E00023ADF816301B93B2
S2140043801C93DEF80000DEF80410DEF80820DEF8E5
S2140043900C3010AF0FC7DEF81000DEF81410CDF8A2
S2140043A04CB003C710A91495D8F800304846984773
S2140043B038B10746304606F0A7F8304606F062F8F1
S2140043C09FE72268D8F80430916848469847074621
S2140043D0002863D116A9DAF80030009898470746F7
S2140043E000285BD104F10C0007C8E3690193236A37
S2140043F02B66019BA864E9642F65EB656A65DAF8AD
S2140044001C30009802A99847074600284BD1014661
S214004410BDF816300193142206A834F0AAFBA36850
S214004420AA6BD3F804C02B6CD2F800B01F68BCE8A7
S2140044300F000DF12C0EAEE80F00DCF80030CEF8C1
S21400444000302368DB68584606A91B6A98478346EF
S214004450D0B9696D079B0B9AE86C1FFA83FE01FBC7
S21400446003F3BDF82210ADF830100699A2F80EE05E
S21400447051606964E1689160B0EB430FA18A918155
S214004480AB6519D24FF0CD0BDAF82030009898477C
S214004490D8F81C30484698475F468BE7D8F81C305B
S2140044A04846984786E7DAF8203000989847D8F8C4
S2140044B01C30484698477DE7A3689B680BA91B6895
S2140044C03846984783460028DED1A3689B6838465E
S2140044D09B68984783460028D6D10A4B9DF8200053
S2140044E09B680199984783460028CDD1304606F050
S2140044F00BF800287FF41BAF014B2B60002700E76A
S21400450047434441849503002941000040B139B136
S21400451003682BB1C0683A4A904203D00720704720
S214004520012070471A7CD2B2C2F3021000EB800062
S21400453002F00F0202EB40020A609A7CD2B2C2F38B
S214004540021000EB800002F00F0202EB40024A600D
S2140045501A7DD2B2C2F3021000EB800002F00F0206
S21400456002EB40028A609A7DD2B2C2F3021000EBE0
S214004570800002F00F0202EB40028A611A7ED2B27D
S214004580C2F3021000EB800002F00F0202EB4002C2
S214004590CA609A7ED2B2C2F3021000EB800002F02C
S2140045A00F0202EB4002013A0A619A8BD2B210095E
S2140045B000EB800002F00F0202EB4002D2B264323F
S2140045C04A611A7CD20981F824209A7CD20981F8A3
S2140045D025201A7DD20981F826209A7DD20981F8F5
S2140045E02A201A7ED20981F827209A7ED20981F8DD
S2140045F028209B7FDB0981F829300020704700BF08
S2140046004354520038B103682BB1C168074A91423F
S21400461003D0072070470120704793F8242042F00B
S214004620010283F824200020704700BF4354520044
S21400463038B103682BB1C168074A914203D00720FE
S21400464070470120704793F8242022F0010283F877
S21400465024200020704700BF4354520058B310B4C3
S214004660046854B3C268184B9A4203D007205DF81A
S214004670044B704794F8222001F00F0302F00F025B
S21400468042EA031384F8223094F82230B1EB131F69
S21400469017D040F6A66300E08BB194F82220B1EB69
S2140046A0121F03F1FF33F7D1002B0CBF142000209C
S2140046B05DF8044B7047012070470120D7E71420AF
S2140046C0D5E70020D3E700BF4354520040B139B1CC
S2140046D003682BB1054BC2689A4203D00720704787
S2140046E001207047C37C0B70002070474354520073
S2140046F020B1034B1B680360002070470120704701
S2140047006C94030003683C2B08D843683B2B05D801
S2140047108368172B02D88369062B01D903207047BC
S214004720C368013B1E2BF9D803690B2BF6D84369E7
S214004730643B632B8CBF03200020704758B151B1F7
S21400474070B50468002C00F09A80C0684E4B984202
S21400475003D0072070BD0120704794F8243023F062
S214004760010384F8243040F6A66302E0013B00F023
S214004770898094F82450ED07F8D494F8243043F058
S214004780020384F8243040F6A66301E0013B79D0AA
S21400479094F824008007F9D4084615460E46FFF71D
S2140047A0B1FF00286DD13278384BA3FB0201C9084F
S2140047B001EB8100A2EB400242EA0112D2B2A270E3
S2140047C03279A3FB0201C90801EB8100A2EB40028B
S2140047D042EA0112D2B22271327AA3FB0201C90860
S2140047E001EB8100A2EB400242EA011202F03F0216
S2140047F0A271327EA3FB0201C90801EB8100A2EB85
S214004800400242EA0112D2B22272327BA3FB0201BC
S214004810C90801EB8100A2EB400242EA0112D2B2C3
S214004820A27232690132D2B2A3FB0201C90801EBBF
S2140048308100A2EB400242EA0112D2B222737269F0
S214004840643AD2B2A3FB0213DB0803EB8301A2EBAC
S214004850410242EA0313DBB2E38175B194F82430D7
S21400486043F0010384F8243040F6A66301E0013BE0
S21400487008D094F82420D207F9D5002070BD012076
S21400488070BD70BD142070BD43545200CDCCCCCC4E
S21400489018B311B3F0B5804F8BB000230D46282116
S2140048A0ADF80A308DF8093006938DF808100446E6
S2140048B0FA6802A806A99047034608B10BB0F0BDF7
S2140048C0069E266002A8ADF80E308DF80C3004F077
S2140048D0B7FE20B10A200BB0F0BD0120704702A839
S2140048E004F038FE01213F6903AA02A8B8479DF8E4
S2140048F00C00607441B211F1210F12D0674AAB7AF6
S214004900126801920029C0F2B78001F160401B01D5
S21400491000F56140DBB280F80033019B53F831307C
S2140049201C60002102A803AAB8479DF80C0020745A
S21400493041B211F1210F12D0584A6B7A12680192D7
S2140049400029C0F2A18001F160401B0100F5614022
S214004950DBB280F80033019B53F831301C60022133
S21400496003AA02A8B8479DF80C00A07441B211F142
S214004970210F0FD0494AEB7A126800296FDB01F14C
S21400498060401B0100F56140DBB280F8003352F84E
S21400499031301C6096F8243043F0400386F824300B
S2140049A02B78E374002B54D02B7896F8281003F05D
S2140049B0010221F00103134386F828302B78002BE0
S2140049C042D164204FF47A7104F0CEFD96F824307C
S2140049D023F0010386F8243040F6A66301E0013B8D
S2140049E045D096F82420D207F9D496F8243003F060
S2140049F07F0386F8243040F6A66301E0013B36D0FC
S214004A0096F82420D209F9D196F8243043F0020310
S214004A1086F8243040F6A66201E0013A27D096F8E0
S214004A202430C3F34003002BF7D173852B78012B7A
S214004A3001D1FF23B385EB6813B12A69A2606360D6
S214004A40174BE360002039E7BE20012104F08CFDFF
S214004A50BCE7144B04A99B6804209847A4E7124FB0
S214004A6000F00F001B010744DBB23B768FE702A87D
S214004A7004F01AFE142021E70B4A00F00F001B0179
S214004A800244DBB2137648E7074A00F00F001B012A
S214004A900244DBB213765EE768950300349B03009E
S214004AA0435452000C960300FCEC00E038B1036857
S214004AB02BB13A4BC2689A4203D0072070470120B8
S214004AC0704730B583B002AD282305F8043D044690
S214004AD000232846ADF806308DF8053004F036FD84
S214004AE0627C53B213F1210F17D0002B0FDB5B094A
S214004AF0203301212A4802F01F0201FA02F240F890
S214004B002320BFF34F8FBFF36F8F94F91130254AE0
S214004B10126852F8333000221A60227C53B213F126
S214004B20210F17D0002B0FDB5B09203301211C4817
S214004B3002F01F0201FA02F240F82320BFF34F8F63
S214004B40BFF36F8F94F91030164A126852F833305C
S214004B5000221A60A27C53B213F1210F17D0002B4B
S214004B600FDB5B09203301210D4802F01F0201FA1A
S214004B7002F240F82320BFF34F8FBFF36F8F94F9F4
S214004B801230084A126852F8333000221A6028465B
S214004B9004F08AFD0020E06003B030BD43545200AC
S214004BA000E100E0349B030068B161B1F0B506682F
S214004BB083B0002E00F0CF807B4BC4689C4204D0AC
S214004BC0072003B0F0BD01207047047C63B2002BC1
S214004BD00EDB5B0920330125744E04F01F0405FA32
S214004BE004F446F82340BFF34F8FBFF36F8F066879
S214004BF00446084617460D46FFF784FD0028E0D118
S214004C002B786B4995F824E0A1FB0320C00800EB45
S214004C108002A3EB420242EA001343EACE13DBB261
S214004C208DF807309DF80730DBB233742B7995F892
S214004C3025E0A1FB0320C00800EB8002A3EB4202A4
S214004C4042EA001343EACE13DBB28DF806309DF835
S214004C500630DBB2B3742B7A95F826E0A1FB03206E
S214004C60C00800EB8002A3EB420242EA001343EACC
S214004C70CE13DBB28DF805309DF80530DBB2337508
S214004C8095F82A20AB6943EAC213DBB28DF80430EC
S214004C909DF80430DBB2B3752B7B95F827E0A1FBBB
S214004CA00320C00800EB8002A3EB420242EA001396
S214004CB043EACE13DBB28DF803309DF80330DBB247
S214004CC033762B6995F828E00133DBB2A1FB03208D
S214004CD0C00800EB8002A3EB420242EA001343EA5C
S214004CE0CE13DBB28DF802309DF80230DBB2B3761D
S214004CF06B6995F82920643BDBB2A1FB0301C90868
S214004D0001EB8100A3EB400343EA0113DBB28DF80D
S214004D1001309DF80130B383B37F03F07F0343EA8D
S214004D20C213B3772168C7B191F8223043F001036C
S214004D3081F8223091F82230D8070ED440F6A663C8
S214004D4000E033B191F82220D20703F1FF33F8D503
S214004D501BB9142035E7012033E791F8223003F021
S214004D600F0363F07F0381F8223091F8223003F0BE
S214004D700F0363F07F0381F8223094F9100010F1DE
S214004D80210F0ED004F01CFC227C53B2002B08DB53
S214004D9002F01F025B090121044801FA02F240F802
S214004DA0232000200DE700BF4354520000E100E03E
S214004DB0CDCCCCCC90F82230A2B943F0010380F8D9
S214004DC0223090F82230DB0723D440F6A66300E0BA
S214004DD033B190F82220D20703F1FF33F8D5C3B9D8
S214004DE014207047012A20D043F0020380F82230B6
S214004DF090F822309B070CD440F6A66301E0002B07
S214004E00EED090F82220920703F1FF33F7D5002B5F
S214004E10E6D000291DDB01F01F000F4A49090123D7
S214004E20834042F821300020704743F0040380F8A6
S214004E30223090F822305B07EBD440F6A66301E000
S214004E40002BCDD090F82220520703F1FF33C6D4B2
S214004E50F6E70020704700BF00E100E058B10368A5
S214004E604BB110B40A46C46815498C4205D00720D9
S214004E705DF8044B704701207047012A16D00AD30C
S214004E80022A06D190F9121011F1210F13D10B202E
S214004E90EEE70320ECE790F9101011F1210FF6D0A1
S214004EA0184600225DF8044BFFF784BF90F91110F6
S214004EB011F1210FEBD018465DF8044BFFF77ABFCF
S214004EC043545200002970B40CDB4B09203301F028
S214004ED01F06304D0124B44045F82340BFF34F8FE2
S214004EE0BFF36F8F90F82230AAB923F0010380F841
S214004EF0223090F82230DC0724D540F6A66300E086
S214004F0033B190F82220D20703F1FF33F8D4CBB99F
S214004F10142070BC7047012A26D023F0020380F8C4
S214004F20223090F822309C070CD540F6A66301E0AC
S214004F30002BEDD090F82220920703F1FF33F7D430
S214004F40002BE5D0002923DB4B09203301F01F019D
S214004F50104801228A4040F82320BFF34F8FBFF34A
S214004F606F8F002070BC704723F0040380F8223057
S214004F7090F822305E07E5D540F6A66301E0002BE8
S214004F80C6D090F82220550703F1FF33BFD5F6E7C9
S214004F900020BEE700E100E078B171B12DE9F843EA
S214004FA0D0F80090B9F1000F00F0B2805D4BC268F7
S214004FB09A4204D00720BDE8F88301207047827C1F
S214004FC099F8227053B2002BC7F340070DDB5B093C
S214004FD020330124544D02F01F0204FA02F245F871
S214004FE02320BFF34F8FBFF36F8F99F822304E4DBB
S214004FF043F0020389F822308846044690F91210DE
S214005000012604E055F82230C340DB0779D5084670
S21400501004F0D6FAA37C59B24FEA511E002903F0D9
S2140050201F000EF1600E0346A4BF06FA00F345F813
S2140050302E3099F80230DBB24FEA131E0EEB8E0EBE
S21400504003F00F0303EB4E03DBB2C8F8003099F809
S2140050500430DBB24FEA131E0EEB8E0E03F00F0386
S21400506003EB4E03DBB2C8F8043099F80630DBB227
S214005070C3F3011E0EEB8E0E03F00F0303EB4E037D
S214005080C8F8083099F80830DBB24FEA131E0EEB6A
S2140050908E0E03F00F0303EB4E03DBB2C8F8183096
S2140050A099F80A30DBB24FEA131E0EEB8E0E03F0B1
S2140050B00F0303EB4E03DBB2C8F80C3099F80C3044
S2140050C0DBB24FEA131E0EEB8E0E03F00F0303EB5C
S2140050D04E03DBB2013BC8F81030B9F80E30DBB235
S2140050E04FEA131E0EEB8E0E03F00F0303EB4E0378
S2140050F0DBB24A096433002902F14002C8F81430D2
S21400510080DA47B148460222BDE8F843FFF752BEB0
S2140051100120BDE8F88348460222BDE8F843FFF7C1
S214005120D1BE00BF4354520000E100E058B103680E
S2140051304BB110B40A46C46815498C4205D0072006
S2140051405DF8044B704701207047012A16D00AD339
S214005150022A06D190F9121011F1210F13D10B205B
S214005160EEE70320ECE790F9101011F1210FF6D0CE
S214005170184600225DF8044BFFF7A4BE90F9111004
S21400518011F1210FEBD018465DF8044BFFF79ABEDD
S2140051904354520010B5012082B005F095FDEFF3A0
S2140051A003830E4A103B12685BB252F833301C6819
S2140051B0EFF30380103840B204F002FA44B163689B
S2140051C033B1A268019202228DF800206846984703
S2140051D0012005F077FD02B010BD00BF349B030030
S2140051E070B4104C2368020A9A4216D26568C0B2A0
S2140051F000F11006012355F8225003FA06F62E4257
S2140052000BD069B100EB0210A36853F82030C3F34B
S214005210400300200B7070BC7047032070BC7047C2
S2140052201846FBE71004FE1F084B1A68000A904257
S21400523001D30320704731B1DA68430104320020FD
S2140052409B580B8070470120704700BF1004FE1F5C
S214005250084B1A68000A904201D30320704739B100
S214005260DA684301043200209B581B0C0B80704701
S214005270012070471004FE1F144A1368F0B4040A95
S2140052809C421DD25768C5B205F11006012357F897
S214005290244003FA06F6264212D0A1B1D468000ACA
S2140052A00434400103FA05F2005992B202EA1040B3
S2140052B0904213BF002000200B700870F0BC7047AF
S2140052C00320F0BC70471846FBE700BF1004FE1F23
S2140052D00C4B10B41C68000AA04200D21AB9032076
S2140052E05DF8044B7047DB685DF8044B083303EB4E
S2140052F0401022EA0103114041EA034141600020C8
S214005300704700BF1004FE1F134BF0B41C68020A5F
S214005310A2420AD25F68C5B205F11006012457F80A
S214005320222004FA06F6164202D10320F0BC70478B
S2140053300129FAD800F47F400AD0AC4024040021AA
S214005340DB68083303EBD0000C4344600020EDE735
S214005350A94089B20024F3E71004FE1F40B10123E0
S2140053600421022201704370C370827000207047CF
S21400537001207047012901D9032070472C4BF0B556
S2140053801C68020AA2424ED25D68C0B200F1100646
S214005390012455F82250B4402C4244D000EB0210B1
S2140053A09C681D6954F8203000293ED043F0040163
S2140053B0204E0E40EFF31087012383F310881E4B18
S2140053C01A8892B222B94FF0400EEA7085F803E0D0
S2140053D01A88013292B21A8087F31088CF0354F8E5
S2140053E0202007D5154F22F480320F4044F82020A5
S2140053F044F8207044F82060EFF31081012282F315
S21400540010881A880C4892B21AB10288013A92B2F1
S21400541002801B889BB213B98022EB70EA7081F37E
S21400542010880020F0BD0320F0BD23F00401BFE784
S2140054301004FE1FD5FC011F6404FE1FD5FC001FD0
S2140054400AB9032070470B4B10B41C68000AA04230
S21400545003D303205DF8044B7047DB6822EA01049F
S214005460400108330A4042EA0442C2505DF8044B49
S214005470002070471004FE1F0AB9032070470D4B2A
S21400548070B41C68000AA04202D3032070BC7047A8
S2140054904001DD682E582B5802EA01043443A4B2BA
S2140054A061EA02021B0C22401B041A432A50002009
S2140054B070BC70471004FE1F2DE9F041002839D05B
S2140054C009681E4D002701EBC000B8464FF0010EDC
S2140054D08C88002335F81320A24218D00133032B02
S2140054E0F8D108318142F3D1FF43FFB2012004F026
S2140054F053F9134A92F8BB3448EA030808EA070748
S21400550082F8BB740120BDE8F04104F015B90A68C2
S21400551002F0B852B2F1807F05D00EFA03F647EAE1
S2140055200602D7B2DAE70EFA03F248EA02085FFA92
S21400553088F8D3E78046FF27D8E700BFAC9403007F
S21400554000E0014070B582B002AB002403F8044DC1
S214005550054618460E4603F085FE9DF80430DB0728
S21400556002D4062002B070BD202D02D9032002B05E
S21400557070BD012EFAD8084B1A69137805D02B4354
S21400558003F0300320461370ECE703F0300323EA01
S214005590050520461570E5E71004FE1F002867D0B5
S2140055A02DE9F84F4368002B5FD00146804631F85E
S2140055B0040BFFF781FFB8F80030002B52D02D4CBB
S2140055C0DFF8B4E0A146002201204FF0400B4FF078
S2140055D0800AD8F80430DEF8107053F83260DEF82F
S2140055E0085003EBC20399880B0AC9B201EB0313F8
S2140055F0EFF3108C80F31088218889B211B9F97006
S21400560087F803B02188013189B221808CF3108895
S21400561016F4803F55F8231007D021F4803126F485
S214005620803C45F8231045F823C045F82360EFF387
S214005630108180F3108823889BB22BB1B9F8003014
S214005640013B9BB2A9F8003023889BB213B9FB70CC
S21400565087F803A081F310880132B8F8003092B2C0
S2140056609342B6D80020BDE8F88F0120BDE8F88F39
S214005670012070476404FE1F1004FE1F002832D06D
S2140056804368002B2FD0F0B587B006AC0023092165
S2140056900193164A04F8141D154ED7680293054662
S2140056A003930493059302A92046B8474FF00A0CCB
S2140056B0029ABDF80C308DF804C002A9F2602046AC
S2140056C0059A72603360B8470122029B8DF8052068
S2140056D002A92046B360B847029B33612846FFF70D
S2140056E05DFF07B0F0BD0120704700BF689503005E
S2140056F01004FE1F2DE9F041304C2268050A954241
S21400570084B003460CD26268C6B20F464FF001085A
S21400571006F1100152F8252008FA01F1114203D1D2
S214005720032004B0BDE8F08104A902AA41F80C2DBC
S2140057304046ADF80C300297ADF8008006EB051534
S214005740FFF7BAFE2069A268EFF3108488F310888A
S2140057501B490B889BB213B94026C370C6700B88D2
S21400576001339BB20B8084F31088FC0352F825307B
S21400577007D523F4803327F4803442F8253042F8E6
S214005780254042F82570EFF31082012383F310883A
S2140057900B880B4C9BB25BB90B889BB213B980216C
S2140057A0C370C17082F31088002004B0BDE8F08199
S2140057B02388013B9BB22380EEE700BF1004FE1F48
S2140057C06404FE1F012901D9032070472C4BF0B555
S2140057D01C68020AA2424ED25D68C0B200F11006F2
S2140057E0012455F82250B4402C4244D000EB02105D
S2140057F09C681D6954F8203001293ED023F0010131
S214005800204E0E40EFF31087012383F310881E4BC3
S2140058101A8892B222B94FF0400EEA7085F803E07B
S2140058201A88013292B21A8087F31088CF0354F890
S214005830202007D5154F22F480320F4044F8202050
S21400584044F8207044F82060EFF31081012282F3C0
S21400585010881A880C4892B21AB10288013A92B29D
S21400586002801B889BB213B98022EB70EA7081F32A
S21400587010880020F0BD0320F0BD43F00101BFE713
S2140058801004FE1FD5FC011F6404FE1FD5FC001F7C
S21400589020B1034B1B68036000207047012070474F
S2140058A0DC940300FFFFFFFF2DE9F04782B002AC57
S2140058B0002544F8045D3C4D8946AF698246904613
S2140058C0214603201E464C460025B847B8F1060F71
S2140058D034D8DFE808F00F374953575B040000213F
S2140058E04FF47A7202FB09F20B46019832F052FE30
S2140058F004460D469AF81330012B07D000230A9A67
S21400590000201370346002B0BDE8F0874FF6FF70D9
S2140059100021A94208BFA0424FF00003EFD2A20820
S214005920AF0842EA8572B94203F1010308BF90420C
S21400593014463D46DBB2E2D2052BF0D1032002B07E
S214005940BDE8F087019816A3D3E90023A9FB000160
S21400595032F020FE04460D469AF81330012BD5D0BF
S2140059604FF0FF300021D4E70198104A0023A9FB2E
S214005970000132F00FFE04460D46EDE701984FF4A5
S2140059807A72F3E7019CA9FB0445E5E72B464A46F5
S2140059900198002132F0FEFD04460D46AAE700BF3E
S2140059A000CA9A3B000000000C96030040420F001D
S2140059B0012970B514461E4620D01CD3022913D1E7
S2140059C0A0FB02010023114A002532F0E3FD8D42C0
S2140059D008BF84420AD0002908BFB0F1FF3F05D0B7
S2140059E08D4208BF844203D2032070BD4FF0FF30C3
S2140059F03060002070BD00210025E8E7A0FB020112
S214005A0000236422002532F0C5FDE0E7A0860100F1
S214005A1068B1084BC2689A4201D007207047836875
S214005A202BB1DA6A22F00102DA6200207047012008
S214005A30704700BF5450470068B1084BC2689A428E
S214005A4001D00720704783682BB1DA6A42F0010262
S214005A50DA62002070470120704700BF54504700AC
S214005A6030B129B1074BC2689A4203D0072070476D
S214005A70012070478368002BFAD09B6C0B600020D7
S214005A80704700BF5450470000B3114BC2689A429B
S214005A9001D0072070478368C3B130B4EFF3108499
S214005AA0012383F310888368DA6AD96A002021F01C
S214005AB00101D9629864DD6A02F0010125F0010255
S214005AC00A43DA6284F3108830BC704701207047BE
S214005AD05450470078B170B51D4CC568A54284B0D7
S214005AE002D0072004B070BD8468002C2ED021B9E7
S214005AF0032004B070BD012070470DF10B03002594
S214005B00009303AB044603958DF80B50FFF7CCFECD
S214005B100028E7D1A368DA6AD96A21F00101D962C0
S214005B20D96A9DF80B4021F0E06104F0070441EAD1
S214005B300461D9620399013959669864D96A02F0FA
S214005B40010221F001010A43DA62CBE70120C9E72E
S214005B505450470030B129B11E4BC2689A4203D058
S214005B6007207047012070472DE9F041876882B012
S214005B706FB37B6E0E4602A900250133B36041F871
S214005B80045DFA6A04461448C2F302688369032077
S214005B9098474FEA4808012303FA08F2019BB3FB33
S214005BA0F2F373603B6B03F001033370FB6A13F090
S214005BB0010F0CBF01232B463373237C03EB8303B7
S214005BC05B00B6332846F38102B0BDE8F0810120C1
S214005BD0FAE700BF545047000C96030008B3F0B530
S214005BE02B4CC568A54283B002D0072003B0F0BD99
S214005BF08768C7B115461E467A6E02AB044608464D
S214005C00002143F8041D01322946FFF7D1FE002883
S214005C10ECD1019BA26843B98EB1012E24D0184660
S214005C20E4E7012070470120E0E7591C14D076B95C
S214005C30116B21F44031116330465365D6E7136B80
